:400000000010002011000000410300004103000010B500F053FA00F09BF90000F7B572B680220021D200404801F0FFF880220021D2003E4801F0F9F80022FF2511003C4EBA
:400040000C363B4BD0584B000700284009184800013001333018AF43F31801900198834207D0581E0078C0190400187802332070F4E704320C2AE4D1C0222E4B92041A6076
:40008000992200252C4B06211A602C4B2C4A1D602C4B2D4C1D6099231B0413602B4A1820136080222A4B92051A602A4A2A4B1A602A4A13780B4313708022294B2B311A60BC
:4000C0008022284BD2031A604022274B1A60C022264B52031A600223254A1360254A1160254A136080222368D2021343236000F03FFF2268214B13402360214A214B1A603E
:400100001022214B1A60214B92181A608022204B12061A601F4A204B25601A601F4A204B1A60204B1D60F7BD00300F4000400F404812000004000140100001400C00014070
:4001400000500F400803044000010B4010500F4018500F40100001002001054000700F4000000440080004400001044008010440000404400804044018040440FFFFFBFF97
:400180000600008004010B40080202402002024008010B401000008000000240AF040080400002400C020B4010B5064C2378002B07D1054B002B02D0044800E000BF012374
:4001C000237010BD500100200000000044120000084B10B5002B03D00749084800E000BF07480368002B00D110BD064B002BFBD09847F9E70000000054010020441200002F
:40020000C80000200000000010B562B600F05AFD00280ED16524012000F08AFE00F052FD002806D1013CE4B2002CF4D14022034B1A6000F039FD00F03DFBFEE7C00000204A
:4002400010B500F079FB00F0C1FB00F02BFC10BD10B500F07FFB10BD70B50D0016000024034BC9B21C8000F011FC3580200070BD6C010020F0B50A27160000245F4387B083
:40028000039005912D4DBC421ADA00F091FB80B228802B88002B0DD002202C8800F048FE00F086FB80B228802B88A4B29C42F3D3002706E00120013400F03AFEA4B2E1E7EB
:4002C0000527002434802B88002B33D02B8832889BB2019305999B189BB233808B4222D2019BE3189BB20293029B9C4209D0631C9BB20493039B1C1900F042FB2070049C59
:40030000F2E772B62B88019A9B1A9BB22B8062B6039B029A9B18013B1B78172B08D0052000F006FE04E0328000F050FB052701E0029CC8E7380007B0F0BDC0466C01002060
:4003400010B500F03DFF03680C2B00D1FEE7FEE7F8B500250F49104B01394A1C14D000221F685C689E68A018B24203D0B858A0500432F8E70200DE68141AA64201D020C22E
:40038000FAE710330139E8E700F020FFFFF73CFFFEE7C04601000000C0120000002370B50C480D4C0D4D9A002100032B00D8A95801338150302BF6D1FFF730FE084B1A68E1
:4003C000002A00D11A6080220121D20513680B43136070BD000000204103000000000000C0000020004770B506000D001400002802D0002000F08EFD00207519002C05D069
:40040000013C2B191B78C018C0B2F7E770BD0000013810B50B2830D8C901494200F0BCFE06080A0C0E10141216191B20174B13E0174B16E0174B0AE0174B12E0174B0BE0AF
:40044000174B09E0174B02E0174B00E0174BC91817E0174B05E0174BC9180878C0B214E0154BC9180A7848788C780002230418430300C8781343000606E0002000F04AFD1A
:4004800000210B7848780002184310BDC07F0000C17F0000C57F0000C97F0000D07F0000D17F0000D67F0000D27F0000D47F0000D87F0000DC7F0000E07F00000C4B10B5DE
:4004C0001A68102313400B4A00D113601368802B0DD10024022021001460FFF799FFA04205D021000220FFF793FFFFF77BFF10BD00030B40C0000020F8B50100060003202A
:40050000FFF786FF040031000420FFF781FF0134E4012718002431000320FFF779FF25000130C001B84209D203785A1ED2B2FD2A00D80125E418E4B20130F3E731000120BB
:40054000FFF766FF6442E4B20623844203D16A4255416D422B401800F8BD0000F0B5BD4CA544FFF76DFE62B6002401949621FF2302AA490008A8FFF77DFE0028F6D102ABA4
:400580001988062900D885E01A7E0423012A4ED102AA568BF21D8A427ED8962149008A427AD808AA92199279172A40D1F3189BB2002B08D09EAAA849D21852181278013BE1
:4005C000801880B2F3E708AB9B195A7940421B79120280B21A430823824228D15EE0342B00D0C6E0019B012B54D1032E52D18022002153A800F019FE80241F2153AB181950
:40060000F21E02AB3619C918B6B200F005FE832E00D0FCE002AA02AB907F5B7F000218430400FF2800D8F8E0012301930933002702A8012143763B0AC376002302AA02327A
:400640000176391D1780877689B2002909D09EA8814D40184019007801391B189BB289B2F3E79EA97D48C9195B4208189BB203707B481B0A081803707A4B0737CB181721CC
:4006800008A81970B9B29623FFF7E6FD6EE7019B012B46D00423CAE70323C8E702AB1D7F5B7E180031380A282ED96F4A1768002F26D0019A012A25D105AD02AA1371D680F7
:4006C000002109AE0C222800049600F0AEFDAE60290003A8B8472623AF88FF339F4202D9AB68B34207D0AA68002A01D1002F04D12B68DBB29CE70E2399E70E23170097E73D
:40070000052395E7052392E700F050FDC1FF1700CFFF69FF3900CFFF3E00510069FF62007400002EB6D13000FFF7E6FE4342434102AA1377019F33007AE7019B012BA9D1E2
:40074000012EA7D1002DA5D1484B1B681B68DA0BD2B2DB09DBB2002A01D080235B0002AA13771B0A5377FF23937700230427D3775EE7019B012B8DD1022E8BD93DE7019B1B
:40078000012B87D10024F1E6019B012B82D12C333719FF339F4200DD7EE753AB1819320009A900F039FD0023BCB21F0040E7002E00D06FE705AB19002D4A082711CA11C11B
:4007C00009AA03CB03C201233400019333002FE7019B012B00D05DE7032E00D05AE702AA02AB977F5B7F3F021F430A23FF2F00D91DE741E00020FFF77FFE002802D18022EB
:400800001C4B1A60FFF724FD00F086FB42E7012300240193023327000AE7144B1B681A68D3099BB2520601D001339BB22802201880B2984204D20123002401930933EAE799
:4008400053A900F047FA0028F5D10123040001930300E0E784FDFFFFA7FDFFFFACFDFFFFADFDFFFFAEFDFFFF70010020CC00002064120000C00000202902C919C901802272
:400880000020FFF7B0FD0600002D0DD1FF2F0BD129000520FFF7BCFD2900361A0620FFF7B7FDF6B2361AF6B202AB76421E7701270023BDE670B50020FFF71EFE431E9841FB
:4008C0000624134D40422B6804401A68C021C03A0020FFF788FD6B681B78181AC0B2834203D12B681B68002B02D1002000F012FB084B19681A00402901D0002C03D00023FF
:400900001360FFF72BFE80221A6000F005FB70BDCC000020C00000208021064A10B5136809060B4313600A2000F0D6FA00F058F910BDC0460000064010B5054C2378002BFF
:4009400003D100F0DBF801232370FFF7E5FF10BD7401002010B50A2000F0C8FA00F052F9054A0A2013685B005B0813600022034B1A6000F0C5FA10BD00000640880F064063
:40098000084B094A196813680020994208D013680133412B00D103000449C85C1360C0B27047C046140200208C010020D0010020044B1868044B1A681B68904200D24130B4
:4009C000C01A7047140200208C01002010B50A2000F08CFA0B4B80211A680B4B49021A6000220A4B0A201A70094B1A680A431A601968084A0A401A60074A084B1A6000F01D
:400A00006BFA10BD8C010020140200201102002004030640FFFFFEFFED0F0000C00F0640134B144A30B515681C681900A54208D1114B1C680F232340082B02D00F4B18604E
:400A400015E013680133402B00D100230C68A342FCD002210A4CC0B221600A4CE0541360094B1A680A4202D11A680A431A6030BD8401002088010020080206404002064094
:400A8000800F064090010020880F064070B504004518AC4204D02078FFF7C2FF0134F8E770BD000010B50A2000F020FA02210C4B0A201A680B4B1A600B4A13688B438021CD
:400AC00013600A4B49021A680A431A601968084A0A401A60074A084B1A6000F0FDF910BD8401002088010020880F064004020640FFFFFEFFF3070000800F064010B5002408
:400B000007211E4A1E4B0A201A601E4B1E4A1C601E4B1A601E4B1F4A13601F4A11601F4A063914601E4A11601E4A13601E4B1C6000F0DCF903210A2000F0AEF91B490A20DC
:400B400000F09EF904221A4B1C601A4B1C601A4B1C601A4B1C601A4B1A601A4B1C601A68194B1A80194B1C60194B1C60194B1C70194B1C60194B1C6010BDC0460B000002B4
:400B8000000006404000064001000A004800064007000080000306400403064010030640440006400002064004020640BD100000880E0640C80E0640480F0640080F06407D
:400BC000C80F0640880F06407C010020140200208C010020110200208801002084010020F021054A13688B4360390B431360034B1A88034B1A607047100001407C0100209A
:400C0000880F0640F021064A13688B431360054B1A68E423DB001340034A13807047C04610000140880F06407C010020842280210D4BD2041A601A6849020A431A600B4974
:400C40000B4A0A6019681960C3210A4B890019600021094B1960094B1C311960084B1A60084A094B1A607047000105400801054010270000240105403801054028010540B3
:400C800014010540881300000C01054010B500F00DFA0121034A13680B43136000F00AFA10BDC0460000054010B5054C2378002B03D1FFF7BBFF01232370FFF7E7FF10BDBA
:400CC0007E010020024B18680006C00F7047C04604000440F0B50024ADB0089403900994FF2800D9ABE0A14200D1A8E080220CA800F092FA02222300210001940AAD9000DF
:400D00004059002802D00918034301920132222AF5D1002902D1002B00D093E0002702977F234D494D4C4E4E4E4A0A916B6025603260C046236806911B0F07920F2B04D03C
:400D400022680023120F0A2A01D02368DBB20893089B0493002B00D07BE000F0A7F9424A424B116805901960049B04920993089B002B16D13E4A03990A920A9A09040A43E9
:400D80003C490A922560354A3160C0462168090F0F2903D01168090F0A2901D01368DBB20893089D002D39D1002F37D0802229000CA800F03AFA019B029A0AAF9B00DA5127
:400DC000069B079A0A937F237B602760234B3260C0462268120F0F2A03D01A68120F0A2A01D01D68EDB20895089B002B16D1224A03990A920A9A09040A4320490A92276007
:400E0000164A3160C0462168090F0F2903D01168090F0A2901D01368DBB20893099B002B09D1124A049912680A600993099B002B01D0099B0893059800F03CF909E0042304
:400E4000089306E0019B01279B00EA58E950029266E708982DB0F0BDB6D7000008000040040000400400008008010B4080010020B6D8000005000080B6D900000600008052
:400E80001F2800D901BE034B8000C318186819607047C04640000020F8B504000E00032900D901BE1F2C00D901BE032725003D40BD400635AF40AE4000F0F8F8A408054B71
:400EC000A400E4182368BB431E43266000F0F2F8F8BDC04600E400E01F2318401E3B8340014A13607047C04600E100E01F2318401E3B8340014A13607047C04680E100E025
:400F00001F2318401E3B8340014A13607047C04680E200E001BE7047034A044913689BB20B4313607047C0460CED00E00400FA0570B5802504002D02064BAC4205D9586832
:400F400000F0AAF8044BE418F6E79868604300F0A3F870BDD40000200080FFFF10B5034B1B7B584300F098F810BDC046D4000020F0B5050087B000F099F8EB1E04900393CA
:400F80002D2B5CD8314B1B789D4204D8304B1C78304BE4B21EE0304B1B789D4204D82F4B1C782F4BE4B215E02E4B1B789D4204D82D4B1C782D4BE4B20CE02D4B1B789D422A
:400FC00004D82C4B1C782C4BE4B203E02B4B1C782B4BE4B21B78EA1EDBB20193294B2A4F9A5C059302922F2A04D92A2D02D919263E6008E03F233E681E40029BB34205D23D
:40100000214B029A1A60052000F046F81C4B1F4AED182B780520DBB213601D4B019A1C601C4B1A60FFF79AFF029BB34208D9059B039A05209B5C3B6000F02EF800E001BE33
:40104000049800F037F807B0F0BDC046C0F1FF0FC1F1FF0FC2F1FF0FC3F1FF0FC4F1FF0FC5F1FF0FC6F1FF0FC7F1FF0FC8F1FF0FC9F1FF0FCAF1FF0FCBF1FF0FCCF1FF0F4A
:40108000CDF1FF0F6C1200002CFF0B4028FF0B401CFF0B4020FF0B400230800804D0C0460138FDD1C046C046C0467047EFF3108072B6704780F310887047C046254B70B51C
:4010C0001B68002B00D09847234B1B685B071CD520240F2021490B680133412B00D100231F4A15681F4AAB4203D113681E4B1C7004E012681D4DD2B2EA540B601C4B1B680C
:401100000342E8D104221B4B1A601B4B1B689B071FD50F20194C1A4A21681368994210D013680133402B00D100231649164DC95CC9B229601360154B1B680340082BEBD1F4
:4011400004E00221124A13688B4313600222114B1A6070BD78010020CC0F0640140200208C0100204003064011020020D001002008030640C00F06408C0F064088010020EF
:4011800084010020900100204002064008020640880F0640800F064002B4714649084900095C49008E4402BC7047C04603B47146490840004900095E49008E4403BC70470D
:4011C000014B18687047C046480100200E4B70B500251E000D4CE41AA410A54204D0AB00F35898470135F8E700F058F8084B00251E00084CE41AA410A54204D0AB00F358FF
:4012000098470135F8E770BDA8120000A8120000A8120000B0120000002310B59A4203D0CC5CC4540133F9E710BD03008218934202D019700133FAE77047000080130000B9
:40124000670000000000000001330F4003410F4004430F40E61062048E04D84018808C40C608E6089311C804113C0101030405060708090A0B0C0E0F101112131415161772
:4012800018191B1C1D1E1F2021222325262728292A2B2E2F3031323334354300F8B5C046F8BC08BC9E467047D10100009D030000F8B5C046F8BC08BC9E467047A901000057
:4012C000D0120000C800002088000000C8000000000000003C12000040120000010000000000E02EC05D00001800000000366E01000000000000000000000000000000004B
:40130000000000000000000000000000000000009A120000000000000000000000000000000000000000000000000000000000000000000000000000000000000000000001
:4013400000000000000000000000000000000000E8000020000000000000000000000000000000000000000000000000000000000000000000000000000000000000000065
:401380000010002091130000991800009918000010B5024B83F3088800F086FA0010002070B51C4C23688022D20213432360182002F048FA2268184B13402360174A184BE5
:4013C0001A603022174B1A60103A174B1A60103A164B1A600132164B1A6080221206154B1A6000252560144A144B1A60144A154B1A60154A154B1A60154A164B1A6016496D
:40140000092002F003FA092002F0E0F9134B1D6070BDC04600010B40FFFFFBFF0600008004010B400802024014020240180202403002024008010B40FE00008000000240F0
:40144000FE0000C0400002400F00008080000240BF5D008004000240553A00000C020B4010B572B60122424B1A7000240FE041486200131959000B00411889881A5AC318A3
:4014800058880004104300F0DBF90134E4B2012CEDD938490C313848543000F0B7F980225200364B1A800120354B1870354A364B1A60364A364B1A60364A374B1A60EE2258
:4014C0001202364B1A609922354B1A6099231B04344A13603449354A1160354A1360AA21C905344A1160344A13603449344A1160344A1360344B18600221344B1960344C95
:4015000023783C22934314221343DBB22370314A147816232343DBB213706F222E4B1A602E4A2F4B1A60FC222E4B1A604C3A2E4B1A60C02252032D4B1A60F0222C4B1A60D4
:401540002C4B18602C4A2D4B1A60FF222C4B1A602C4A2D4B1A602D4B196031222C4B1A602C4B1960FFF71CFF00F090F910BDC0461C700F40F83F0000F840000000600F401F
:4015800002600F403366666600000140000066660400014066666666080001400C0001401000014000500F400000AC5508500F4010500F4018500F4020500F400000FFAA2F
:4015C00028500F4030500F402000004000800F4001700F4000700F40000004400060C000080004401800044000010440080104401801044000020440306000000802044088
:4016000018020440800DD8000803044000040440080404401804044010B5064C2378002B07D1054B002B02D0044800E000BF0123237010BD5801002000000000EC3F00008B
:40164000084B10B5002B03D00749084800E000BF07480368002B00D110BD064B002BFBD09847F9E7000000005C010020EC3F0000C80000200000000010B5064A1378013328
:40168000DBB2137053780133DBB2537000F08CFA10BDC0467401002070B582B062B600F063F9002002F028FA002002F039FA4F4800F06CFA00F078FA00F036FA00F08EFAD2
:4016C00000F04EFE4A4C00F007FE0028FBD100F0A9FA00F025FC474B1B78002B36D00022454B1A7010E05900C81882004348821810008830048842480C5293321178414A14
:40170000D15401333C4A13703B4B1B780B2BEAD918213B4800F046F90C213A4800F042F9334C4821200000F03DF90C21364800F039F9FF2000F0A2F902F0EAF943425841D8
:40174000C0B202F0D9F900222A4B1A70294B5B78DBB2042B45D90022274B1A7029E000F0BBFD0028FBD1244B18786B46DA1D002101F0AAFF206000F0AFFD0028FBD11E4B53
:4017800018786B46DA1D012101F09EFF606000F0A3FD0028FBD126000C36174D28786B46DA1D022101F090FFA0602B7801332B703400114B1B78052BD1D9134D00262E60C3
:4017C000002001F0B3FF6860012001F0AFFFA860084B5E7002F0B0F943425841C0B202F09FF900F083FB00F0BBFD6CE779160000A4070020740100205C0200206402002064
:4018000008020020FC01002020020020F0B50025002711E0BB00C658F3B2FF22964308E06A008A181478A419527822700135013BDBB2002BF4D10137092FEBD9F0BDC04656
:4018400010B50A00002102F0C8FB10BD0C4B1B68002803D080221206134301E05B005B08074A1360074B1B68002803D080229204134301E0044A1340024A13607047C04652
:4018800080031A4008010B40FFFFFFFD10B50120FFF7DCFF10BDC04610B502F069FB03680C2B00D1FEE7FEE770B50F4E0F4D13E029686B68AC68002202E001C901C304320A
:4018C000A242FAD1E868002202E0002102C304328242FAD11035013E002EE9D102F04EFBFFF7DAFEFEE7C04601000000D045000010B500230AE0032B03D89A000C49505852
:4019000000E00C4899000C4A885001332F2BF2D9FFF7A6FD094B1B68002B02D10022074B1A608022D205116801230B43136010BD801300009918000000000020C00000200F
:4019400010B500F089F810BD10B500F037F810BD10B5044A1368802109060B431360FFF7EFFF10BD0000064010B5064B1B78002B04D1FFF7E9FF0122024B1A70FFF7E8FF5F
:4019800010BDC04676010020044B1B680F221340082BF9D0024B18607047C046080206404002064070B506000D00002403E0305DFFF7EAFF0134AC42F9D370BD134A144B8E
:4019C0001A600023134A13601349144A1160144A14490A6007201449086014490B6006381349086013490A60134A1360134A1360134A1360134A1360134A1360134A1360CE
:401A0000134A13601268134B1A8070470C000002000006404000064001000A004800064007000080000306400403064010030640440006400002064004020640880E0640CA
:401A4000C80E0640480F0640080F0640C80F0640880F06407801002005490B68F0229343603A13430B60034B1A88034B1A6070471000014078010020880F064010B5FFF7C8
:401A800083FF0D20FFF780FF0A20FFF77DFF10BD034A117880235B420B43DBB21370704773000F40014B18707047C04683000F40014B1878C0B2704763000F40014B1880AE
:401AC0007047C04644100F40014B188880B2704784100F40014B18807047C04604100F4010B501E0FFF7F0FFFFF7E2FF0307F9D410BDC04610B5C720FFF7E0FFC720FFF760
:401B0000E9FF02F06BF8074A117810230B43DBB2137002F067F8FFF7E3FF0020FFF7C2FF10BDC04693000F4010B5064B1B78002B04D1FFF7DFFF0122024B1A70FFF7A8FF34
:401B400010BDC0467A010020014B18647047C0460000002010B5040002F040F8044A1368C0218B43A4011C43146002F03BF810BD00E400E00122014B1A60704700E100E058
:401B80000122014B1A60704780E100E010B50400FFF7F6FF2000FFF7D7FF0320FFF7DAFFFFF7E8FF10BDC0460122014B1A60704780E200E010B5084B1B78002B06D100F083
:401BC0001DF900F0A3F90122034B1A7000F058F800F016FD10BDC0467B01002070B5FFF7E9FF051E02D100F0AFFC0500002D02D100F0B6FB0500002D02D00BE0013C00E050
:401C0000074C00F069FB002801D0002CF6D1002C00D1102500F0A8FA00F05AFA280070BD404B4C0070B5144E002400251FE01F232B4001229A4011006A09104804329300BF
:401C40001A580A40C3185B6813420ED0300000F051F804003100280000F0A6F8002C04D02100280001F010FD062424360135052DDDD9200070BDC0469041000064020020F0
:401C800070B500230CE013489A1D920000211150191D8A00012149421150821851600133002BF0D00C4C062310E06668A27E094B5B1900211977012A06D12069002803D034
:401CC000717A228B02F089F924342B005D1E002BEBD170BD640200209041000030B50B884A889C1A00250D818079844200DD0C8130BDC046F0B583B0C6688468038B426876
:401D00000092827E0192002516E0019D2A002100300000F0B7FA2A002100009800F032FA051E02D080252D063D4321000098FFF7D5FF0C3402363B005F1E002BE5D12800A1
:401D400003B0F0BDF0B50A8B8D684F680B69012125E00C00044003D1BE883A7AB21802E0BA883E7A921B2E89B24201D3002200E00A00A24202D01E78013E1E70A24202D0B7
:401D80001C78002C07D188431043002A01D17A7A00E001221A7049000C3501336246541EA446002AD5D1F0BD70B504008A7E124B1B181D7F012A04D12800FFF7C3FF05006F
:401DC00002E0002001F020FD0B4B1B191D7763091F2214401E3AA240002D06D1064906339B0058589043585005E0034906339B00585802435A5070BD6402002070B5334C2D
:401E0000D02252000021200002F0E7F8304B23808023DB0063802F4BA3800322A023FF33E25402217C3BFF3BE1542B4BE3840A204C23FF33E0541432013BE2540233E15499
:401E4000133A183BE252254A043BE2500C221433E25413324623FF33E2549623DB009D256D006353023D61531D4D3531FF3165524A21FF3162540B39635204316054093856
:401E8000023960544221FF3162541E32FF32A35220002830DC3A1349743102F095F8124C210010311C3406230CE0A268238B04E00B78D37201310C320300581E002BF7D101
:401EC00024342B005D1E002BEFD170BD6402002016650000B80B0000AA71000060E31600E02E0000F4410000744100000123002005E0931D9B0004495B58184313005A1E42
:401F0000002BF6D17047C046640200200023024AD380024A1360704764020020AC01002070B500250026414B1B68032B06D101F055FE01223E4BDA8001F054FE3C4BDC88E5
:401F4000E4B2062C23D8A3003A4AD3589F460122364B1A6001261AE00022344B1A60012615E0FFF73BFE0022304B1A60012501260DE002222D4B1A60012608E000222B4BB4
:401F80001A60012603E00322284B1A600026002E0FD001F023FE264BDB88DBB29C4205D1234AD188244B0B439BB2D38001F01AFE00261E4B1B68012BB5D0022B33D11C4AAB
:401FC0009733FF33D35CDBB29A21FF31525CD2B2052B28D8D800C018810018484118098B8A4220D21249088980B2CD246400095B89B2884217D0D900CB1899000F4B5918BD
:402000008C6853009A189300E41801F0E7FD084B1A8992B2CD2149005A52228892B202315A5201F0DFFD280070BDC046AC010020640200200C4500000080FFFF904100003E
:40204000FF231940062902D08318002199715300195AC3185980C94399808218002393727047C04670B506000D00012305E0220029003000FFF7E4FF23005C1E002BF6D1DC
:4020800070BDC04670B5074DC600321894002C19A0684A0051188A008018A17EFFF7E2FF70BDC0469041000070B50500C20012189300064AD3181B8B04E021002800FFF707
:4020C000E1FF23005C1E002BF7D170BD9041000010B5062303E02000FFF7E6FF23005C1E002BF8D110BDC04630B5012307E0FF231340062B02D063005D5A1D5223005C1EB4
:40210000002BF4D130BDC04670B50500C200121893000E4AD3181B8B14E0EA00521993000A4AD3186200121991009A6894466144DE6830009A7E062A01D060003018FFF743
:40214000D3FF23005C1E002BE7D170BD9041000010B5062303E02000FFF7D6FF23005C1E002BF8D110BDC04610B5FFF7F1FF10BD9840504380235B009A1A51434018000A64
:402180007047C046F0B54F4680B482B005000E000192002401234EE07B00F3189A885988CB439BB29A4243D17B00985B814206D8431A9946F21900239372012202E00B1A2A
:4021C00099460022002A11D1EB7999450ED9F3199B7AAA7A934205D33A0001993000FFF72FFF1FE0F219013393721BE0AB79994504D9EB79994515D8002A13D1FF23019A78
:402200001340062B0ED00902F31999469B79194308230122FFF7ACFF020A7B00F3185A804B4698717B00F3185A88D2439A8001E0802424063B005F1E002BADD1200002B068
:4022400004BC9146F0BDC046F0B5474680B407000E00904601230FE0FF2342461340062B09D06500A85BE95B00238022FFF780FF80B2E853A85323005C1E002BECD104BC16
:402280009046F0BD10B5FFF7DFFF10BD054803680F2293431900044B1B7813400B4303607047C04604FF084063F1FF0F054803680F2293431900044B1B7813400B4303604F
:4022C0007047C04600FF084062F1FF0F10B5FFF7DDFFFFF7EBFF10BD024BDB68802018407047C0466402002010B5114BDB68DB0312D4052812D81F23034001229A40110098
:4023000042090B4C043293001A590A40E3185B68134205D1012404E0112402E0012400E00024002C01D100F08BFC200010BDC0466402002010B5084BDB68DB0307D4074BEF
:402340001B78022B05D100F06FFB002003E0112001E00120404210BD64020020B001002010B50F4BDB681B0618D400240120404211E02000FFF7B8FF00280BD1042C03D88E
:402380000122084B5A7002E00022064B5A70FFF7D1FF04E00134052CEBD900E0112010BD64020020B0010020F8B54F464646C0B401280BD0022804D0002399460633984658
:4023C00007E0052399460023984602E0002399469846144C00251FE001F000FC2268136861698B43136066683268A77F0721B9408A434146B9400A433260227F49469140CF
:402400000B4322681360E2681368A1698B43136001F0E8FB20340135112DDDD90CBC90469946F8BDCC42000010B51B4A93780133DBB293709078C0B2FFF756FF041E09D1F5
:40244000154B9B78052B02D10022134B5A70FFF771FF1EE0104B9B78052B11D10F4B1A8901321A81DA6880218A43DA60DA681202120ADA60DA6804061443DC60002408E06C
:40248000064AD3681B021B0AD360D16803060B43D360002CC9D110BDB00100206402002010B501F085F910BD084B1A68520052081A601A68120C12040138104318601A6837
:4024C000802109060A431A607047C04600000240084B1A68520052081A601A68120C12040138104318601A68802109060A431A607047C0464000024010B504000800FFF7B2
:40250000D3FF2000FFF7E4FF10BDC04610B51F23034001229A40110042090A4C043293001A590A40E3185B68134201D0002300E01123002B03D1282100F0B6F90300180061
:4025400010BDC0466402002070B50024002504E02000FFF7DBFF05430134052CF8D9280070BDC04670B505000E00140001F036FB2B685C4034405C402C6001F033FB70BD61
:4025800010B5074C00220F212000FFF7EBFF0022F0212000FFF7E6FF00F040FB10BDC0460000014010B50400144B1B78834223D0012B0AD0022B02D1FFF7E2FF05E0042BE0
:4025C00003D0032B01D101F035F8012C14D0022C05D100F01FF90222084B1A700CE0042C0AD0032C05D101F033F80322034B1A7002E00022014B1A7010BDC046B00100203A
:4026000010B5FFF763FE0020FFF7CEFE0021A023FF33034AD1540020FFF7C4FF002010BD64020020F0B55F4656464D464446F0B483B00190304C23680F221A4091462F4D78
:402640002B6801221A4092462D4E336807221A4093462368F0221A4000922B6802271F403368382211001940884600220F212000FFF778FF002201212800FFF773FF062254
:4026800007213000FFF76EFF0022F0212000FFF769FF002202212800FFF764FF302238213000FFF75FFF6B46988801F0C1F85A4607213000FFF756FF524601212800FFF723
:4026C00051FF4A460F212000FFF74CFF424638213000FFF747FF3A0002212800FFF742FF009AF0212000FFF73DFF03B03CBC90469946A246AB46F0BD0000014000000440F8
:4027000008000440F0B5474680B482B005008846C10009188B001F49CB189C68142A02D91000143800E0002014321700642A00D9642743465843642101F058FA06004046EA
:402740007843642101F052FA010000230193002713E05300185B864208D81300814201D207E001235A1E002BF3D104E00623019301E0062301930C340137EA0052199300E2
:40278000044AD3181B8B9F42EBD3019802B004BC9046F0BD90410000030080895B885843400080B27047C04670B5134B1B685B68DC7A01F013FA11490A68114B1340114A90
:4027C0001568114A1278AA18D27A1343802292001343E4000D4AA25813430B6001F002FA00220B4B5A8001F0F9F9040001F0C0F9200001F0F7F970BDB40100200800084070
:4028000000FBFFFF040400203845000028450000BC01002070B51E4BA022FF329A5CCF214900585C824208D0FFF7BEFD184BCF225200995CA022FF329954164E6022F0218D
:402840003000FFF78FFE144D002238212800FFF789FE124C002202212000FFF783FE06220F213000FFF77EFE002207212800FFF779FE002201212000FFF774FE084A136878
:402880008021C9030B4313600648FFF709FE70BD6402002000000140080004400000044004000840493B0000F0B55F4656464546E0B482B001908B46C300844663449A00E4
:4028C000414CA418A3689A46404B52461A606068FFF762FF3E4B188018885B465843642101F084F90600E37E257F5D43002109E0364A00231068038013688020D8720C3301
:4029000013600131A942F3D3402480270023984600E01C000198FFF7E7FCFFF70BFD2D4B02E0002B05D0013B2B4AD2681206F8D401E010239846254B52461A6000210EE01D
:40294000224B1B681A88964202D2DA7ABA43DA72DA7A2243DA720C331C4A13600131A942EED36308DBB2002C03D027004246002ACFD00198FFF7B8FCFFF7DCFC4346002B4D
:4029800004D016E0002B07D0013B00E0114B124AD2681206F6D401E0102398464346002B07D10B4B198889B25A460198FFF7AAFE8046019800F056FE404602B01CBC90464B
:4029C0009A46A346F0BDC0469041000004040020BC01002000A60E006402002010B50400837F06229A40072199404068FFF7BAFD237F04229A400F2199402068FFF7B2FD50
:402A000010BDC04610B50400837F0721994000224068FFF7A7FD237F06229A400F2199402068FFF79FFD10BD10B51A4BA022FF329A5CCF214900585C824208D0FFF7B4FCBD
:402A4000144BCF225200995CA022FF3299540022114B1A70114B1A68114B91681960137F104CA380D37EE3801068A0605B01C018E060FFF7B3FFA068FFF7C4FF0A4A0B4B67
:402A80001A60044AD16880230B43D360FFF78CFE10BDC04664020020B8010020B401002004040020BC010020452B0000CC00002070B5040001F092F82268136861698B43C8
:402AC000136001F08FF801F089F861680B68A47F0722A2409343A022FF32054DAA5C002A02D10632A24013430B6001F07BF870BD6402002070B5040001F070F82268136878
:402B000061698B43136001F06DF801F067F861680B68A57F0722AA409343A022FF32084EB25C002A02D10632AA4013430B60E2681368A1698B43136001F054F870BDC046E4
:402B40006402002010B52E4B19682E4B1B782E4C228860885B00121A5A52E068FFF7A8FF2A4A13780133DBB21370A388013B9BB2A380002B0CD0244BD8682030D860FFF792
:402B80002DFF1F4A13680C331360FFF70DFE35E01D4AD388013B9BB2D380002B1BD014009068FFF7A7FFA0682030A060FFF72AFF174B1B681A7FA2801A68E260D87E40016F
:402BC0001018E060FFF70AFF0D4A13680C331360FFF7EAFD12E00C4B9868FFF78BFF0D4B1B78002B02D0FFF71FFC07E00A4B1A8901321A81DA6880218A43DA6010BDC046E1
:402C00000404002038450000BC010020B8010020B4010020B10100206402002010B5074B1B8A002B08D0054CE068FFF741FFA068FFF760FF0023238210BDC046BC010020A9
:402C400010B50400C2B2114B1A700220FFF7AAFCFFF7E4FFE3001C19A2000D4BD3180D4A13605C680C4B802212061A601A680B490A431A60A0892423094AD15CFFF73CFCC9
:402C80002000FFF789FD074B188010BDB201002090410000B4010020040008400028CC0164020020BC01002070B588B004000D0020221049684601F087F9002013E0050B59
:402CC000227813096B400F252B405B006E469B5B00014340180B42402A405200905B1B01584001340D00691E002DE8D180B208B070BDC0463C450000094B1B78062B03D112
:402D0000084A094B1A600AE0A2235B00074AD25C443BFF3B9340013B1B04034A13607047D40100200000FF03D0000020640200200122094B1A60094B1B689BB2084A5380E5
:402D4000084AD168084B0B40D360084B5B68084A1343084A13607047140008400C000840D4010020640200207FFFFEFFD00000202008E8810400084082B00190019A03E009
:402D8000019B013B0193019A044B1B7B5BB2002B01DA002AF4D1019B02B0704764020020024B1A68024B1A607047C046D00000200C00084001280ED0002804D0022804D002
:402DC000032804D005E0012006E0042004E0002002E0002000E002207047C04670B500F0FDFE0C4D2B68072293432B600A4C2368063A9343236000F0F5FE00F0EFFE2B68AC
:402E0000382293432B602368363A9343236000F0E9FE70BD080004400000044010B500F0DDFE084C23680F229343236000F0DAFE00F0D4FE2368F0229343236000F0D2FEB6
:402E400010BDC0460000014010B500F0C7FE0A4C236807229343013A1343236000F0C2FE00F0BCFE236838229343083A1343236000F0B8FE10BDC0460800044010B5040012
:402E800000F0ACFE064A1168064B0B40FF210C401C4380239B001C43146000F0A3FE10BD0800084000E8FFFF70B505000C0000F095FE69680B68AD7F0722AA409343AC40A5
:402EC0001C430C6000F08EFE70BDC04670B50600054D002405E031002800FFF7E5FF20350134112CF7D970BDCC42000070B505000C0000F073FE2A68136869698B43297FE1
:402F00008C401C43146000F06DFE70BD70B50600054D002405E031002800FFF7E7FF20350134112CF7D970BDCC42000010B50400104B1B7983421BD002280AD003280FD067
:402F4000012813D10020FFF7E1FF0620FFF7BEFF0CE00020FFF7DAFF0020FFF7B7FF05E00020FFF7B3FF0420FFF7D0FF014B1C7110BDC046D401002070B5C20012189300F3
:402F8000134AD3185B695B070BD5C300181883009C58890061180C8864010E4BE4188E7807E0C30018188300094A9C58490164180126002509E000212000FFF775FF042194
:402FC0002000FFF793FF20340135AE42F3D870BD90410000CC420000F0B583B0C200121893001F4AD3185B695B070BD5C300181883009C58890061180C886401194BE41862
:403000008E7807E0C30018188300154A9C58490164180126144B1B79022B09D0042B03D000270623019306E005270023019302E000270023019300250DE000212000FFF73C
:4030400055FF01992000FFF72FFF39002000FFF74DFF20340135AE42EFD803B0F0BDC04690410000CC420000D401002070B505000C0000F0B3FDEA681368A9698B43697F9D
:403080008C401C43146000F0ADFD70BD70B50600054D002405E031002800FFF7E7FF20350134112CF7D970BDCC42000070B50400C9000A4BCD5800F091FD09490A68094B1B
:4030C0001A40FF2323402C001C43144380239B001C430C6000F086FD70BDC046284500000800084000E8FFFF10B50F4B1B5C022B02D0032B0CD016E000F070FD0B490B6804
:403100000F2293430B3A13430B6000F06BFD0AE000F064FD05490B68F0229343B03A13430B6000F05FFD10BDC84200000000014010B5FFF7CDF910BD10B50120FFF772FAA1
:40314000184B1B78062B0AD000F048FD16490B68F0229343903A13430B6000F043FD114B1B78062B05D0114B5B68114A1343114A13600020FFF782FE0A4B1B78062B06D08C
:403180009A235B000C4AD05AFFF7D2FF06E0074B5B68802212061343064A1360074800F007FB10BDD401002000000140D00000202008E8810400084064020020312D0000ED
:4031C00010B504000F4B1B78834219D0012B02D0032B03D004E0FFF701FE01E0FFF71EFE084B1C70032C06D0062C07D0012C07D1FFF72AFE04E0FFF79FFF01E0FFF79CFFA6
:4032000010BDC046D401002070B5324B1B5C022B02D0032B2FD05CE000F0E0FC2E4C23680F25AB43236000F0DDFC00F0D7FC2368AB43236000F0D6FC00F0D0FC274A1368DD
:4032400001218B43136000F0CDFC00F0C7FC244C2368083DAB4306221343236000F0C2FC0A2000F0E5FA00F0B9FC2368AB43236000F0B8FC2DE000F0B1FC174C2368F025B7
:40328000AB43236000F0AEFC00F0A8FC2368AB43236000F0A7FC00F0A1FC104A136802218B43136000F09EFC00F098FC0C4C2368B83DAB4330221343236000F093FC0A2072
:4032C00000F0B6FA00F08AFC2368AB43236000F089FC70BDC842000000000140000004400800044010B59C235B00104AD05AFFF7DBF80F4A13685B005B08136013688021F2
:4033000009060B4313600F2000F06AFA80225202084B1A60074B1B681B0CFBD10122064B1A600F2000F066FA10BDC04664020020400002400C0008401400084030B583B09F
:403340001A4C2568272000F03FFC194B2360F0230193019C174B9A225200985A400080B204329B5A584380B283001818182100F03DFC80B2013080B203E0019B013B0193F8
:40338000019C0D4B1B681B0701D4002CF5D10B4B5B680B4A13430B4A1360044B1D6000F047FA0F2000F012FA03B030BD08000840F00600406402002010000840D000002004
:4033C0002018E8810400084010B50020FFF72AF900F004FC04000A4B5B680A4A13430A4A13600A4B1B78062B01D0FFF77BFFFFF7A5FFFFF7D5FC200000F0F4FB10BDC046D8
:40340000D00000202008E88104000840D4010020F8B54F464646C0B481463D4DA2235B00EB5C01279F40013FBC00E3195800642100F0DCFB8046E41920012018642100F09C
:40344000D5FB06009A235B00E85AFFF771FEFFF753FC00222F4B5A8080256D00002418E02C4B5B889BB29E4200D9AC436D082C4300D1013400212000FFF718FE244AD168A1
:4034800080230B43D360FFF79FFFE1208001FFF773FC002DE4D11F4B5B889BB24246B21A934207D31B4B5B889BB24644B34203D9053502E0042500E00025174B586822006F
:4034C0000023002100F03EFC02000B001149488880B2002100F036FC104A002300F032FC0B4C9D235B00E25A002300F00BFC3A00002300F007FC98235B00E258002300F09C
:4035000001FC4B461D700CBC90469946F8BDC04664020020D40100202845000040420F00F8B504000D001600C20012189300094AD3181F6A8B00FF18FFF71EFD3000FFF7CC
:4035400067FF060029002000FFF746FD3E603000F8BDC0469041000010B50C00FEF7A4FF80208000FFF7E4FD2000FFF787FC064AD16880230B43D360FFF726FFE1208001C0
:40358000FFF7FAFB10BDC0466402002070B50400FFF7AAFD9F235B00224AD05A224B5843E121C90300F022FB451C29000C20FFF7D3FF1E4B5B889BB2C0225200934209D969
:4035C000AD00FF2D00D9FF2529003020FFF7C4FF302600E00C262000FFF716FE134B5B889BB280229200934201D9104B5A8075430E4B58886843182100F0F8FA9623DB0040
:4036000058439F235B00074AD15A00F0EFFA084B984200D918008C346400024B1C19A08070BDC0466402002000770100D4010020FFFF000010B50020FFF7C2FD0020FFF7C5
:4036400075FC0022014B1A7110BDC046D401002010B50022024B1A710020FFF717FD10BDD401002010B505280AD8C30018188300044AD3185C68A01C0E21FFF715FB208095
:4036800010BDC0469041000030B543091F2404400122A2400B4C04339B00E3185D6895435D608C235B00E358DA060AD42200102423430934FF3413512823FF33D0540133C3
:4036C000D15430BD6402002070B506000C001500C20012189300124AD3181A7FDB7ED318052817D88B4218D90320FEF75BFF0320FFF766FD4823FF330A4AD05CFFF75AFB13
:40370000094B1871FFF712FC2A0021003000FFF707FF04E08020C00501E08020C00570BD9041000064020020D401002010B50400012811D80320FEF735FF0620FFF740FDA9
:403740000220FFF7F3FB0222054B1A71FFF7D4FA2000FFF71BFF01E08020C00510BDC046D4010020014BD8677047C0460000002010B5040000F032FA044A13689B009B08EE
:40378000A4071C43146000F02DFA10BD0CE400E080221202014B1A607047C04600E100E080221202014B1A607047C04680E100E010B50400FFF7F4FF2000FFF7D3FF0320A6
:4037C000FFF7D6FFFFF7E4FF10BDC0461F2318401E3B8340014A13607047C04600E100E01F2318401E3B8340014A13607047C04680E100E01F2318401E3B8340014A13607A
:403800007047C04680E200E001BE704770B504000D001F2802D90020FFF7F6FF1034A40080239B059C4664442068256070BDC04610B5034B1B7B584300F0C6F910BDC046F5
:40384000D8000020F0B557464E46C0B483B0040000F0C4F90190E71E2D2F74D83F4B1B78DBB29C4208D83E4B1B78DBB29A463D4B1B78DBB2994631E03B4B1B78DBB29C42D7
:4038800008D83A4B1B78DBB29A46394B1B78DBB2994623E0374B1B78DBB29C4208D8364B1B78DBB29A46354B1B78DBB2994615E0334B1B78DBB29C4208D8324B1B78DBB2CF
:4038C0009A46314B1B78DBB2994607E02F4B1B78DBB29A462E4B1B78DBB299462D4BDE5D2F2E09D92A2C07D919222B4B1A60052000F06AF9192503E0274B1D683F231D40F2
:40390000B54206D9234BDA5D234B1A60052000F05BF91F4B9C4664442378DBB21F4A13601F4B52461A601F4B4A461A600520FFF77FFFB5420AD2174BDA5D174B1A600520CD
:4039400000F042F902E00020FFF75EFF019800F049F903B00CBC91469A46F0BDC0F1FF0FC1F1FF0FC2F1FF0FC3F1FF0FC4F1FF0FC5F1FF0FC6F1FF0FC7F1FF0FC8F1FF0F42
:40398000C9F1FF0FCAF1FF0FCBF1FF0FCCF1FF0FCDF1FF0F7C4500002CFF0B4028FF0B401CFF0B4020FF0B40034B1868C0231B02184000D00120704700010B4010B500F0CD
:4039C0000DF9044A1368C02109020B43136000F009F910BD00010B4010B500F0FFF808490A68084B1A408024E40122430A600A6813408022120213430B6000F0F3F810BDE8
:403A000000010B40FF3FFFFF70B5050000F0E6F80400FFF7C9FF002803D0FFF7DDFF012100E0002108482840084A1568084B2B40184310601368012901D1FFF7BFFF2000F9
:403A400000F0D0F870BDC0460404040010020B40FBFBFBFF10B5244B1B685B0715D5234B1B685B070ED5224BD969042001401F4C22688A432260DA698243DA611B69002B7F
:403A800000D098470420FFF7BFFF174B1B685B0518D5164B1B685B0510D5154BD9698022D2001140114802688A430260D969114A0A40DA615B69002B00D098478020C000AB
:403AC000FFF7A2FF084B1B685B030CD5074B1B685B0304D5064B9B69002B00D098478020C002FFF791FF10BD10020B40EC000020DC010020FFFBFFFF04490A68D2B2402326
:403B00009A438001184010430860704700030440024B186880090123184070470403044004490A687F231A40C301D8B2104308607047C04600030440024B1868C0090123C0
:403B4000184070470403044010B5154CE0681A491A4A0968401A10800120606160681349084013490843606015480068804710BD10B50B4C60680B4A02430B4882430D4B5F
:403B8000198809040A23E160E0688142FCD0626020691840FCD0E0680749086010BDC046000008401810200000200000E7EFDFFF00200000BC010020D0010020BE0100209F
:403BC000CC000020000000000230800804D0C0460138FDD1C046C046C0467047EFF3108072B6704780F310887047C046002243088B4274D303098B425FD3030A8B4244D3DF
:403C0000030B8B4228D3030C8B420DD3FF22090212BA030C8B4202D31212090265D0030B8B4219D300E0090AC30B8B4201D3CB03C01A5241830B8B4201D38B03C01A524157
:403C4000430B8B4201D34B03C01A5241030B8B4201D30B03C01A5241C30A8B4201D3CB02C01A5241830A8B4201D38B02C01A5241430A8B4201D34B02C01A5241030A8B421E
:403C800001D30B02C01A5241CDD2C3098B4201D3CB01C01A524183098B4201D38B01C01A524143098B4201D34B01C01A524103098B4201D30B01C01A5241C3088B4201D313
:403CC000CB00C01A524183088B4201D38B00C01A524143088B4201D34B00C01A5241411A00D20146524110467047FFE701B5002000F006F802BDC0460029F7D076E770473D
:403D00007047C046002B11D1002A0FD1002900D1002802D00021C943081C07B4024802A14018029003BDC046D9FFFFFF03B4684601B5029800F032F8019B9E4602B00CBC73
:403D40007047C046F0B54F464646C0B41604360C9946330005042C0C070C150C63437E436F4365431C0CAD1964199C46A64203D980235B02984647446346250CEF191D042B
:403D80004B464A4343432D0C240464199918C91920000CBC90469946F0BDC046F0B54D46564644465F46F0B4924683B004000D0099468B422FD82CD04946504600F0AEF871
:403DC00029000600200000F0A9F8331A9846203B9B4600D574E053465A4693401F005346424693401E00AF4229D826D05B46A41BBD41002B00DA79E0002200230092019307
:403E000001235A4693400193012342469340009319E08242D0D900220023009201930C9B002B01D01C605D600098019903B03CBC90469946A246AB46F0BDA342D6D90022CA
:403E40000023009201934346002BE8D0FB0772081A4346467B080EE0AB4201D1A2420CD8A41A9D41012024196D410021013E24184D41002E06D0AB42EED9013E24196D417C
:403E8000002EF8D15B460098019900196941002B22DB2B005A46D3402A004446E2401C005B461500002B2CDB26009E40330026004746BE403200801A994100900191AEE750
:403EC000424620239B1A5246DA40414613004A468A4017001F4382E7424620239B1A2A0046469A402300F3401343D5E74246202300219B1A0022009101920122DA4001928B
:403F000082E74246202326009B1ADE402F00B446974066463B003343C9E7C04610B5002903D100F007F8203002E0081C00F002F810BDC0461C2101231B04984201D3000C43
:403F400010391B0A984201D3000A08391B09984201D30009043902A2105C40187047C04604030202010101010000000000000000014B18687047C046500100200E4B70B516
:403F800000251E000D4CE41AA410A54204D0AB00F35898470135F8E700F008FB084B00251E00084CE41AA410A54204D0AB00F35898470135F8E770BDB8450000B8450000B3
:403FC000B8450000C0450000002310B59A4203D0CC5CC4540133F9E710BD03008218934202D019700133FAE77047000000000000ACFDFF7F0100000000300F400004004083
:404000000F400004830D56085B045D9094089601970198209A129B019C229E14AE03B018B203B404B501B628BE41BF10D804D904DB04DC09DF010E280F0215401C421D08F4
:404040001E282404361458405F8063026D408801C2E0C480CC60D618D808E28006011201320138203E10404649FF4AFF4BFF4F01501858045A045F01604062406440654083
:40408000668068806A806C806E8092019A01B601BE40C043C5ECC702C813C9FFCAFFCBFFCD83CE03CF01D018D280D401D804DA04DB04DF01E040E240E440E540E680E88006
:4040C000EA80EC80EE8004080A400B080E4019401C2841044280468049054C04500451045304594572C0841488409C40B108B380B444C020C21AD083D220D60BE402EA40DB
:404100005380570159405C0265406F028B01D4A0D6A0DA805C02840287029C02A702B780D680E210E6405F40611063406C027510D604D802DA01DC0229408740894097403B
:40414000B402CA08E201EC021001110101000F4018300F4013310F4035320F401D330F400A400F4009410F4009420F4008430F4002600F4000090B020F06040D070E0C057B
:404180000801030A202020202020202020202020CC4200008C020020EC02002090010020A8010020012800000200010201000000B40300202C4300009C02002004030020CB
:4041C0008C010020A4010020012800000200010201000000C00300208C430000AC0200201C03002088010020A0010020012800000200010201000000CC030020EC430000A8
:40420000BC02002034030020840100209C010020012800000200010201000000D80300204C440000CC0200204C030020800100209801002001280000020001020100000047
:40424000E4030020AC440000DC020020640300207C01002094010020012800000200010201000000F0030020C432E803640028280A031E0014000000C432E80364002828C5
:404280000A031E0014000000C432E803640028280A031E0014000000C432E803640028280A031E0014000000C432E803640028280A031E0014000000C432E80364002828AE
:4042C0000A031E00140000000203000008000140080204401802044000020440040204400000000F40000000180612000800014008020440180204400002044004020440F1
:404300000000F0002000000014050F000800014008020440180204400002044004020440000000F0800000001C071500080001400802044018020440000204400402044093
:4043400000F00000080000000C0309000800014008020440180204400002044004020440000F00000400000008020600080001400802044018020440000204400402044000
:4043800000000F001000000010040C0008000140080204401802044000020440040204400F00000001000000000000000400014008010440180104400001044004010440AC
:4043C000000000F0800000001C0715000800014008020440180204400002044004020440F00000000200000004010300040001400801044018010440000104400401044019
:404400000000F0002000000014050F00040001400801044018010440000104400401044000000F001000000010040C0004000140080104401801044000010440040104400B
:404440000000000F400000001806120000000140080004401800044000000440040004400000000F4000000018061200000001400800044018000440000004400400044054
:404480000000F0002000000014050F000000014008000440180004400000044004000440000000F0800000001C071500000001400800044018000440000004400400044032
:4044C00000F00000080000000C0309000000014008000440180004400000044004000440000F0000040000000802060000000140080004401800044000000440040004409F
:4045000000000F001000000010040C008E1F00004E1F0000581F0000621F0000721F00007C1F0000861F000000000000804F120000040000009F24000000000000009AAC6B
:40454000AEF53459C6475CEB68B2F21E8C8F1623227AB8D64AC8D064E43D7E910000000005000000010000000A000000010000002800000001000000A000000003040506AD
:404580000708090A0B0C0E0F101112131415161718191B1C1D1E1F2021222325262728292A2B2E2F3031323334354300F8B5C046F8BC08BC9E46704741160000F1180000B4
:4045C000F8B5C046F8BC08BC9E46704719160000E0450000C800002090000000B802000000000000452B00000000FF0F0008C001010000000000E02EC05D000018000000E4
:4046000000366E01040404000000000000000000000000000000000000000000000000000000000000000000AA4500000000000000000000000000000000000000000000DA
:4046400000000000000000000000000000000000000000000000000000000000000000000000000000000000F000002000000000000000000000000000000000000000002A
:4046800000000000000000000000000000000000000000000000000000000000000000000000000000000000000000000000000000000000000000000000000000000000FA
:4046C00000000000000000000000000000000000000000000000000000000000000000000000000000000000000000000000000000000000000000000000000000000000BA
:404700000000000000000000000000000000000000000000000000000000000000000000000000000000000000000000000000000000000000000000000000000000000079
:404740000000000000000000000000000000000000000000000000000000000000000000000000000000000000000000000000000000000000000000000000000000000039
:407FC0008B911300002600000000330000000000000001000000010000000000000000000000000000000000000000000000000000000000000000000000000000000000F7
:0200000490303A
:020000009F93CC
:0200000490402A
:20000000FFFF010000000000000000000000000000000000000000000000000000000000E1
:0200000490501A
:0C000000000204C81193110004DEB126B8
:0200000490600A
:0100000001FE
:00000001FF