:400000000010002011000000410300004103000010B500F053FA00F09BF90000F7B572B680220021D200404801F0FFF880220021D2003E4801F0F9F80022FF2511003C4EBA
:400040000C363B4BD0584B000700284009184800013001333018AF43F31801900198834207D0581E0078C0190400187802332070F4E704320C2AE4D1C0222E4B92041A6076
:40008000992200252C4B06211A602C4B2C4A1D602C4B2D4C1D6099231B0413602B4A1820136080222A4B92051A602A4A2A4B1A602A4A13780B4313708022294B2B311A60BC
:4000C0008022284BD2031A604022274B1A60C022264B52031A600223254A1360254A1160254A136080222368D2021343236000F03FFF2268214B13402360214A214B1A603E
:400100001022214B1A60214B92181A608022204B12061A601F4A204B25601A601F4A204B1A60204B1D60F7BD00300F4000400F404812000004000140100001400C00014070
:4001400000500F400803044000010B4010500F4018500F40100001002001054000700F4000000440080004400001044008010440000404400804044018040440FFFFFBFF97
:400180000600008004010B40080202402002024008010B401000008000000240AF040080400002400C020B4010B5064C2378002B07D1054B002B02D0044800E000BF012374
:4001C000237010BD500100200000000044120000084B10B5002B03D00749084800E000BF07480368002B00D110BD064B002BFBD09847F9E70000000054010020441200002F
:40020000C80000200000000010B562B600F05AFD00280ED16524012000F08AFE00F052FD002806D1013CE4B2002CF4D14022034B1A6000F039FD00F03DFBFEE7C00000204A
:4002400010B500F079FB00F0C1FB00F02BFC10BD10B500F07FFB10BD70B50D0016000024034BC9B21C8000F011FC3580200070BD6C010020F0B50A27160000245F4387B083
:40028000039005912D4DBC421ADA00F091FB80B228802B88002B0DD002202C8800F048FE00F086FB80B228802B88A4B29C42F3D3002706E00120013400F03AFEA4B2E1E7EB
:4002C0000527002434802B88002B33D02B8832889BB2019305999B189BB233808B4222D2019BE3189BB20293029B9C4209D0631C9BB20493039B1C1900F042FB2070049C59
:40030000F2E772B62B88019A9B1A9BB22B8062B6039B029A9B18013B1B78172B08D0052000F006FE04E0328000F050FB052701E0029CC8E7380007B0F0BDC0466C01002060
:4003400010B500F03DFF03680C2B00D1FEE7FEE7F8B500250F49104B01394A1C14D000221F685C689E68A018B24203D0B858A0500432F8E70200DE68141AA64201D020C22E
:40038000FAE710330139E8E700F020FFFFF73CFFFEE7C04601000000C0120000002370B50C480D4C0D4D9A002100032B00D8A95801338150302BF6D1FFF730FE084B1A68E1
:4003C000002A00D11A6080220121D20513680B43136070BD000000204103000000000000C0000020004770B506000D001400002802D0002000F08EFD00207519002C05D069
:40040000013C2B191B78C018C0B2F7E770BD0000013810B50B2830D8C901494200F0BCFE06080A0C0E10141216191B20174B13E0174B16E0174B0AE0174B12E0174B0BE0AF
:40044000174B09E0174B02E0174B00E0174BC91817E0174B05E0174BC9180878C0B214E0154BC9180A7848788C780002230418430300C8781343000606E0002000F04AFD1A
:4004800000210B7848780002184310BDC07F0000C17F0000C57F0000C97F0000D07F0000D17F0000D67F0000D27F0000D47F0000D87F0000DC7F0000E07F00000C4B10B5DE
:4004C0001A68102313400B4A00D113601368802B0DD10024022021001460FFF799FFA04205D021000220FFF793FFFFF77BFF10BD00030B40C0000020F8B50100060003202A
:40050000FFF786FF040031000420FFF781FF0134E4012718002431000320FFF779FF25000130C001B84209D203785A1ED2B2FD2A00D80125E418E4B20130F3E731000120BB
:40054000FFF766FF6442E4B20623844203D16A4255416D422B401800F8BD0000F0B5BD4CA544FFF76DFE62B6002401949621FF2302AA490008A8FFF77DFE0028F6D102ABA4
:400580001988062900D885E01A7E0423012A4ED102AA568BF21D8A427ED8962149008A427AD808AA92199279172A40D1F3189BB2002B08D09EAAA849D21852181278013BE1
:4005C000801880B2F3E708AB9B195A7940421B79120280B21A430823824228D15EE0342B00D0C6E0019B012B54D1032E52D18022002153A800F019FE80241F2153AB181950
:40060000F21E02AB3619C918B6B200F005FE832E00D0FCE002AA02AB907F5B7F000218430400FF2800D8F8E0012301930933002702A8012143763B0AC376002302AA02327A
:400640000176391D1780877689B2002909D09EA8814D40184019007801391B189BB289B2F3E79EA97D48C9195B4208189BB203707B481B0A081803707A4B0737CB181721CC
:4006800008A81970B9B29623FFF7E6FD6EE7019B012B46D00423CAE70323C8E702AB1D7F5B7E180031380A282ED96F4A1768002F26D0019A012A25D105AD02AA1371D680F7
:4006C000002109AE0C222800049600F0AEFDAE60290003A8B8472623AF88FF339F4202D9AB68B34207D0AA68002A01D1002F04D12B68DBB29CE70E2399E70E23170097E73D
:40070000052395E7052392E700F050FDC1FF1700CFFF69FF3900CFFF3E00510069FF62007400002EB6D13000FFF7E6FE4342434102AA1377019F33007AE7019B012BA9D1E2
:40074000012EA7D1002DA5D1484B1B681B68DA0BD2B2DB09DBB2002A01D080235B0002AA13771B0A5377FF23937700230427D3775EE7019B012B8DD1022E8BD93DE7019B1B
:40078000012B87D10024F1E6019B012B82D12C333719FF339F4200DD7EE753AB1819320009A900F039FD0023BCB21F0040E7002E00D06FE705AB19002D4A082711CA11C11B
:4007C00009AA03CB03C201233400019333002FE7019B012B00D05DE7032E00D05AE702AA02AB977F5B7F3F021F430A23FF2F00D91DE741E00020FFF77FFE002802D18022EB
:400800001C4B1A60FFF724FD00F086FB42E7012300240193023327000AE7144B1B681A68D3099BB2520601D001339BB22802201880B2984204D20123002401930933EAE799
:4008400053A900F047FA0028F5D10123040001930300E0E784FDFFFFA7FDFFFFACFDFFFFADFDFFFFAEFDFFFF70010020CC00002064120000C00000202902C919C901802272
:400880000020FFF7B0FD0600002D0DD1FF2F0BD129000520FFF7BCFD2900361A0620FFF7B7FDF6B2361AF6B202AB76421E7701270023BDE670B50020FFF71EFE431E9841FB
:4008C0000624134D40422B6804401A68C021C03A0020FFF788FD6B681B78181AC0B2834203D12B681B68002B02D1002000F012FB084B19681A00402901D0002C03D00023FF
:400900001360FFF72BFE80221A6000F005FB70BDCC000020C00000208021064A10B5136809060B4313600A2000F0D6FA00F058F910BDC0460000064010B5054C2378002BFF
:4009400003D100F0DBF801232370FFF7E5FF10BD7401002010B50A2000F0C8FA00F052F9054A0A2013685B005B0813600022034B1A6000F0C5FA10BD00000640880F064063
:40098000084B094A196813680020994208D013680133412B00D103000449C85C1360C0B27047C046140200208C010020D0010020044B1868044B1A681B68904200D24130B4
:4009C000C01A7047140200208C01002010B50A2000F08CFA0B4B80211A680B4B49021A6000220A4B0A201A70094B1A680A431A601968084A0A401A60074A084B1A6000F01D
:400A00006BFA10BD8C010020140200201102002004030640FFFFFEFFED0F0000C00F0640134B144A30B515681C681900A54208D1114B1C680F232340082B02D00F4B18604E
:400A400015E013680133402B00D100230C68A342FCD002210A4CC0B221600A4CE0541360094B1A680A4202D11A680A431A6030BD8401002088010020080206404002064094
:400A8000800F064090010020880F064070B504004518AC4204D02078FFF7C2FF0134F8E770BD000010B50A2000F020FA02210C4B0A201A680B4B1A600B4A13688B438021CD
:400AC00013600A4B49021A680A431A601968084A0A401A60074A084B1A6000F0FDF910BD8401002088010020880F064004020640FFFFFEFFF3070000800F064010B5002408
:400B000007211E4A1E4B0A201A601E4B1E4A1C601E4B1A601E4B1F4A13601F4A11601F4A063914601E4A11601E4A13601E4B1C6000F0DCF903210A2000F0AEF91B490A20DC
:400B400000F09EF904221A4B1C601A4B1C601A4B1C601A4B1C601A4B1A601A4B1C601A68194B1A80194B1C60194B1C60194B1C70194B1C60194B1C6010BDC0460B000002B4
:400B8000000006404000064001000A004800064007000080000306400403064010030640440006400002064004020640BD100000880E0640C80E0640480F0640080F06407D
:400BC000C80F0640880F06407C010020140200208C010020110200208801002084010020F021054A13688B4360390B431360034B1A88034B1A607047100001407C0100209A
:400C0000880F0640F021064A13688B431360054B1A68E423DB001340034A13807047C04610000140880F06407C010020842280210D4BD2041A601A6849020A431A600B4974
:400C40000B4A0A6019681960C3210A4B890019600021094B1960094B1C311960084B1A60084A094B1A607047000105400801054010270000240105403801054028010540B3
:400C800014010540881300000C01054010B500F00DFA0121034A13680B43136000F00AFA10BDC0460000054010B5054C2378002B03D1FFF7BBFF01232370FFF7E7FF10BDBA
:400CC0007E010020024B18680006C00F7047C04604000440F0B50024ADB0089403900994FF2800D9ABE0A14200D1A8E080220CA800F092FA02222300210001940AAD9000DF
:400D00004059002802D00918034301920132222AF5D1002902D1002B00D093E0002702977F234D494D4C4E4E4E4A0A916B6025603260C046236806911B0F07920F2B04D03C
:400D400022680023120F0A2A01D02368DBB20893089B0493002B00D07BE000F0A7F9424A424B116805901960049B04920993089B002B16D13E4A03990A920A9A09040A43E9
:400D80003C490A922560354A3160C0462168090F0F2903D01168090F0A2901D01368DBB20893089D002D39D1002F37D0802229000CA800F03AFA019B029A0AAF9B00DA5127
:400DC000069B079A0A937F237B602760234B3260C0462268120F0F2A03D01A68120F0A2A01D01D68EDB20895089B002B16D1224A03990A920A9A09040A4320490A92276007
:400E0000164A3160C0462168090F0F2903D01168090F0A2901D01368DBB20893099B002B09D1124A049912680A600993099B002B01D0099B0893059800F03CF909E0042304
:400E4000089306E0019B01279B00EA58E950029266E708982DB0F0BDB6D7000008000040040000400400008008010B4080010020B6D8000005000080B6D900000600008052
:400E80001F2800D901BE034B8000C318186819607047C04640000020F8B504000E00032900D901BE1F2C00D901BE032725003D40BD400635AF40AE4000F0F8F8A408054B71
:400EC000A400E4182368BB431E43266000F0F2F8F8BDC04600E400E01F2318401E3B8340014A13607047C04600E100E01F2318401E3B8340014A13607047C04680E100E025
:400F00001F2318401E3B8340014A13607047C04680E200E001BE7047034A044913689BB20B4313607047C0460CED00E00400FA0570B5802504002D02064BAC4205D9586832
:400F400000F0AAF8044BE418F6E79868604300F0A3F870BDD40000200080FFFF10B5034B1B7B584300F098F810BDC046D4000020F0B5050087B000F099F8EB1E04900393CA
:400F80002D2B5CD8314B1B789D4204D8304B1C78304BE4B21EE0304B1B789D4204D82F4B1C782F4BE4B215E02E4B1B789D4204D82D4B1C782D4BE4B20CE02D4B1B789D422A
:400FC00004D82C4B1C782C4BE4B203E02B4B1C782B4BE4B21B78EA1EDBB20193294B2A4F9A5C059302922F2A04D92A2D02D919263E6008E03F233E681E40029BB34205D23D
:40100000214B029A1A60052000F046F81C4B1F4AED182B780520DBB213601D4B019A1C601C4B1A60FFF79AFF029BB34208D9059B039A05209B5C3B6000F02EF800E001BE33
:40104000049800F037F807B0F0BDC046C0F1FF0FC1F1FF0FC2F1FF0FC3F1FF0FC4F1FF0FC5F1FF0FC6F1FF0FC7F1FF0FC8F1FF0FC9F1FF0FCAF1FF0FCBF1FF0FCCF1FF0F4A
:40108000CDF1FF0F6C1200002CFF0B4028FF0B401CFF0B4020FF0B400230800804D0C0460138FDD1C046C046C0467047EFF3108072B6704780F310887047C046254B70B51C
:4010C0001B68002B00D09847234B1B685B071CD520240F2021490B680133412B00D100231F4A15681F4AAB4203D113681E4B1C7004E012681D4DD2B2EA540B601C4B1B680C
:401100000342E8D104221B4B1A601B4B1B689B071FD50F20194C1A4A21681368994210D013680133402B00D100231649164DC95CC9B229601360154B1B680340082BEBD1F4
:4011400004E00221124A13688B4313600222114B1A6070BD78010020CC0F0640140200208C0100204003064011020020D001002008030640C00F06408C0F064088010020EF
:4011800084010020900100204002064008020640880F0640800F064002B4714649084900095C49008E4402BC7047C04603B47146490840004900095E49008E4403BC70470D
:4011C000014B18687047C046480100200E4B70B500251E000D4CE41AA410A54204D0AB00F35898470135F8E700F058F8084B00251E00084CE41AA410A54204D0AB00F358FF
:4012000098470135F8E770BDA8120000A8120000A8120000B0120000002310B59A4203D0CC5CC4540133F9E710BD03008218934202D019700133FAE77047000080130000B9
:40124000670000000000000001330F4003410F4004430F40E61062048E04D84018808C40C608E6089311C804113C0101030405060708090A0B0C0E0F101112131415161772
:4012800018191B1C1D1E1F2021222325262728292A2B2E2F3031323334354300F8B5C046F8BC08BC9E467047D10100009D030000F8B5C046F8BC08BC9E467047A901000057
:4012C000D0120000C800002088000000C8000000000000003C12000040120000010000000000E02EC05D00001800000000366E01000000000000000000000000000000004B
:40130000000000000000000000000000000000009A120000000000000000000000000000000000000000000000000000000000000000000000000000000000000000000001
:4013400000000000000000000000000000000000E8000020000000000000000000000000000000000000000000000000000000000000000000000000000000000000000065
:40138000000000000000000000000000000000000000000000000000000000000000000000000000000000000000000000000000000000000000000000000000000000002D
:4013C00000000000000000000000000000000000000000000000000000000000000000000000000000000000000000000000000000000000000000000000000000000000ED
:4014000000000000000000000000000000000000000000000000000000000000000000000000000000000000000000000000000000000000000000000000000000000000AC
:40144000000000000000000000000000000000000000000000000000000000000000000000000000000000000000000000000000000000000000000000000000000000006C
:407FC000000000000000000000000000000000000000010001000000000000000000000000000000000000000000000000000000000000000000000000000000000000007F
:0200000490303A
:020000000E965A
:0200000490402A
:20000000FFFF010000000000000000000000000000000000000000000000000000000000E1
:0200000490501A
:0C000000000204C81193110004CE202956
:0200000490600A
:0100000001FE
:00000001FF