:400000000080002011000000110900001109000080B500AF024A034B1B68136000F0AAFCBC760040FA46004010B5054C237833B9044B13B10448AFF300800123237010BD3D
:40004000B081FF1F00000000F03C0000084B10B51BB108490848AFF300800848036803B910BD074B002BFBD0BDE81040184700BF00000000B481FF1FF03C0000C880FF1FDA
:40008000000000002DE9F0418AB006AF62B602F095FD02F047FE0121002000F001FD00F09BF9AE4B1B78012B05D1AD4800F074F9AA4B00221A700023FB6049E102F042FE28
:4000C00003461A46A74B1A80A64BB3F900301A4613469B001344002B01DA03F6FF731B13184603F0A1F802469F4B1A609F4AFB6832F91330184603F097F802469A4B1B68D4
:400100001946104602F0DCFF0346184603F056F9034619B2954AFB6822F81310924B4FF000021A60924AFB6852F823208E4B1B681946104603F01AF90346002B05D08A4B28
:400140001A688B49FB6841F823208A4AFB6852F82320854B1B681946104603F025F90346002B05D0804B1A688249FB6841F82320814AFB6832F913309BB201339BB219B2F8
:400180007D4AFB6822F813107B4AFB6832F913301A467A4B1B689A42C0F2D780734AFB6832F913301A46754B1B6892FBF3F3184603F03AF80146724AFB6842F823106C4A05
:4001C000FB6852F823006B4AFB6852F82330194602F074FF034619466A4AFB6842F82310674AFB6852F82330184603F0E7F803461BB29846624AFB6852F82330184603F0B8
:40020000DDF803461BB21A464FF47A7303FB02F35D4A82FB03125211DB17D21A5B4B83FB02139910D317CC1A23469B0023445B00D41A534AFB6852F82330184603F0BEF8CC
:4002400003461BB21A464FF47A7303FB02F34F4A82FB03129210DB17D21A4C4B83FB02139910D317CD1A2B469B002B445B00D51A444AFB6852F82330184603F09FF8034612
:400280001BB27B603F4AFB6852F82330184603F095F803461BB21A464FF47A7303FB02F3394A82FB03125211DB17D21A374B83FB02139910D317CE1A33469B0033445B00CA
:4002C000D61A304AFB6852F82330184603F076F803461BB21A464FF47A7303FB02F32B4A82FB03129210DB17D11A284B83FB01239A10CB17D21A13469B0013445B00CA1A9F
:40030000049203967B680293019500944346FA681F49204803F0B8F81E4800F03DF8134AFB68002122F81310114AFB684FF0000142F823100F4AFB684FF0000142F8231011
:400340000D4AFB68002122F81310FB680133FB60FB68182B7FF7B2AEA1E600BFDC81FF1FB884FF1FB484FF1FE081FF1FE481FF1F8082FF1FE482FF1F1084FF1F1081FF1F7F
:400380004883FF1FAC83FF1F1F85EB5167666666F43C00003885FF1F80B582B000AF786000BF00F0C5FF0346002BFAD07B683F3300221A707B683E3321221A70786803F0EF
:4003C0008FF803469BB21946786800F04DFF00BF0837BD4680BD00BF80B582B000AF2B4B1B78002B0AD100F0FFFC0346002B49D000F0E6FE254B01221A7043E000F086FF42
:400400000346002B3ED000F0A5FF0346FB71FB790D2B02D0FB790A2B10D11D4B1B881A461C4B002199541B491B4803F051F8184B00221A80194B01221A7023E0FB79082B2C
:4004400002D0FB797F2B0AD1114B1B88002B06D00F4B1B88013B9AB20D4B1A8012E00C4B1B883E2B03D9212000F034FF0AE0084B1B885A1C91B2064A11801946054AFB7909
:400480005354FFE700BF0837BD4680BD4284FF1F4484FF1F5484FF1FB884FF1FDC81FF1F80B582B000AF786039603A680021786802F0E1FF00BF0837BD4680BD80B584B039
:4004C00000AFF860B9607A607A68B968F86802F0C7FF00BF1037BD4680BD00BF80B483B000AF0346FB71FEE780B487B000AF7860396000233B6100237B6127E07B699B0063
:400500007A6813441B68BB60BB68FB73BB6823F0FF03BB6014E03B695B003A6813441B781A46BB68134419463B695B003A6813445B780B703B6901333B61FB7B013BFB736E
:40054000FB7B002BE7D17B6901337B617B69262BD4D900BF1C37BD4680BC704780B582B000AF334B3A221A80324B18221A70324B81221A80314B18221A70314B06221A7051
:40058000304B52221A70304B304A1278D2B21A702F4B40F619121A802E4B41F251221A800023FB7019237B6014E0FB785B00DAB2294B1B78DBB203F00103DBB21343DBB219
:4005C00003F00303FB704FF4F07002F021FD7B68013B7B607B68002B02D0FB78032BE4D17B68002B02D10320FFF778FF1B4B4FF480721A80194B07221A70194B00221A70E7
:40060000184B48221A70154B00221A70164B00221A70164B02221A70154A154B1B78DBB243F00303DBB2137000BF0837BD4680BD80400040824000408440004086400040C9
:400640000043004000420040A14600400F0100492242004020420040254200400440004006400040084000400940004001400040A243004080B582B000AF274B1B78FB71C0
:40068000264B1B78BB71264B1B787B71254AFB7903F00703DBB21370234AFB791B09DBB213701E4ABB7943F00303DBB213701C4A7B7943F00303DBB213701C4BDD221A709D
:4006C0001B4B80221A701B4BEE221A701A4BFF221A701A4B2E221A70194B40221A70194B40221A70184BFE221A70184B20221A70174BF8221A700A2002F0C6FB084A7B7914
:400700001370064ABB791370124B44221A7000BF0837BD4680BD00BFCF010049F8460040F94600406E5800406F5800400D5100401D5100402D5100403D510040FD5100405C
:400740000159004003590040205B0040235B0040585B00407658004080B586B000AF72B6534B61221A70FFF7F9FE514B01221A70504A504B1B78DBB243F00403DBB2137007
:400780000023FB7513E0FA7D13465B0013445B00494A13443B613B691A683B699B889BB219461046FFF77CFEFB7D0133FB75FB7D072BE8D90023FB751CE0FA7D13469B0070
:4007C00013445B003D4A1344FB60FB681B68BB60FB685B687B60FB681A7A5B7A1B0213437B807B881A467968B868FFF767FEFB7D0133FB75FB7D002BDFD031494FF090401C
:40080000FFF772FE04212F48FFF74AFE04222E492E48FFF753FE2E4A2D4B1B78DBB243F00203DBB213702B4A2A4B1B78DBB243F00203DBB21370284A274B1B78DBB243F03D
:400840004003DBB21370254A244B1B78DBB243F01003DBB213700A2221492248FFF72EFE0A2221492148FFF729FE082220492148FFF724FE082220492048FFF71FFE082247
:400880001F492048FFF71AFE1F4A1F4B1B78DBB243F00803DBB21370FFF7ECFE0E220E491A48FFF70BFE00BF1837BD4680BD00BF00480040E84600401C3D00004C3D00006C
:4008C0009C00004800760040940A0048087600400350014013500140A0430040C2430040640A004800510040700A0048F05100407C0A004812510040840A00482251004096
:400900008C0A00483251004022430040B043004080B500AF02F078FD03461B680C2B00D1FEE7FEE780B584B000AF78600F4B1A687B6813441A460E4BD31A802B09DC0B4BC3
:400940001B68FB60094B1A687B681344074A136007E002F059FD02460C2313604FF0FF33FB60FB6818461037BD4680BD1481FF1F6086FF1F80B586B000AF224B7B61224B11
:400980003B61204B7B6135E03B691B68FB603B695B68BB603B699B683B6000237B600CE0FB681A68BB681A60BB680433BB60FB680433FB607B6804337B607A683B689A42CD
:4009C000EED13B69DB683B6000237B6008E0BB6800221A60BB680433BB607B6804337B607A683B689A42F2D13B6910333B617B69013B7B617B69002BC6D102F00BFDFFF76E
:400A000041FBFEE701000000703F000080B582B000AF194B194A1A60194A194B1B6843F40073136000237B600FE07B68032B04D8144A7B6852F8233000E0134B13497A68F3
:400A400041F822307B6801337B607B682F2BECD90F4B1B78DAB20F4B1A700F4B0B4A1A60FFF77AFE02F0D6F90C4B00221A6000BF0837BD4680BD00BF0CED00E00004FA0576
:400A800014ED00E000000000110900000080FF1FBC760040C480FF1F08ED00E0C080FF1F80B582B000AF03460A46FB711346BB71094B1B78002B04D100F010F8064B0122A3
:400AC0001A70BA79FB791146184600F0D9F800BF0837BD4680BD00BF4684FF1F80B582B000AF02F09DFA0346FB71544A534B1B78DBB243F00103DBB21370514A504B1B78AA
:400B0000DBB243F00103DBB213704E4B01221A704D4B02221A704D4A4C4B1B78DBB203F07F03DBB21370002002F0AEF9484A484B1B78DBB223F00603DBB21370454A454B39
:400B40001B78DBB223F02003DBB21370404A404B1B78DBB243F00103DBB21370012002F093F9282002F090F93B4A3B4B1B78DBB203F07F03DBB21370374A374B1B78DBB25E
:400B800023F04003DBB21370314A314B1B78DBB243F00203DBB21370022002F075F92C4A2B4B1B78DBB243F00403DBB213702B4B00221A702A4B00221A70FB79184602F091
:400BC00033FA0721172002F09BF92649172002F06FF90721182002F093F92349182002F067F90721152002F08BF92049152002F05FF90721012002F083F91D49012002F024
:400C000057F90721022002F07BF91A49022002F04FF90721032002F073F91749032002F047F907210C2002F06BF914490C2002F03FF900BF0837BD4680BD00BFA543004015
:400C4000B54300409D60004009600040106000409443004012600040F851004084600040856000402D1B000015140000211B0000391A0000811A0000CD1A0000391B000035
:400C800080B582B000AF03460A46FB711346BB712E4AFB7913702E4B00221A702D4B00221A702D4B00221A702C4B00221A702C4B00221A702B4B00221A702B4B00221A702E
:400CC0002A4B4FF400021A60284B4FF080721A60264B4FF400121A60244B02221A60234B04221A60214B08221A60BB79002B02D0012B09D011E01E4A1D4B1B78DBB223F00D
:400D00000103DBB2137011E0194A194B1B78DBB243F00103DBB2137008E0154A144B1B78DBB243F00103DBB2137000BF114B03221A70114B80221A70012002F069F90F4B52
:400D400004221A7000BF0837BD4680BD9185FF1F9485FF1FB085FF1FB385FF1FA885FF1FB285FF1FB585FF1F9085FF1F00E100E009600040286000400860004012600040BA
:400D800080B400AF0F4B00221A700F4B00221A700E4B00221A700E4B00221A700D4B00221A700D4B00221A700C4B00221A700C4B03221A700B4B80221A7000BFBD4680BCA9
:400DC000704700BF9485FF1FB085FF1FB385FF1FA885FF1FB285FF1FB585FF1F9085FF1F286000400860004080B400AF034B1B78DBB21846BD4680BC704700BFB385FF1F48
:400E000080B483B000AF0346FB71FA79064913465B0013449B000B4401331B78DBB218460C37BD4680BC7047B885FF1F80B485B000AF0346FB710023FB81FB79002B1CD0F3
:400E4000FB79082B19D8104AFB791B0113441B78DBB29BB203F00F03FB81FB891B029AB20949FB791B010B4401331B78DBB29BB21343FB81FB89023BFB81FB8918461437B0
:400E8000BD4680BC704700BFFC5F0040B0B485B000AF03463960FB711346BB80FB79002B6DD0FB79082B6AD8B988FA79364813465B0013449B00034406331B889BB2C3F5F3
:400EC000007399420CD9FA792F4913465B0013449B000B4406331B889BB2C3F50073BB802A4CF979BB881B0A9BB2D8B2FA79264D13465B0013449B002B4403331B78DBB2D8
:400F00000343DAB20B0123441A70204AFB79B988C9B21B01134401330A461A703B68002B13D00023FB810CE01948FB79FA8939680A4412781B01034408331A70FB890133DA
:400F4000FB81FA89BB889A42EED3FA790E4913465B0013449B000B44013300221A700B48F979FA79084C13465B0013449B00234405331B78DAB20B01034402331A7000BF32
:400F80001437BD46B0BC7047B885FF1FFC5F00407060004080B584B000AF03463960FB711346BB803B68002B30D0FB79002B2DD0FB79082B2AD8FB791846FFF737FF034666
:400FC0001A46BB88934205D9FB791846FFF72EFF034600E0BB88BB800023FB810DE0FB893A6813440D49FA7912010A4408321278D2B21A70FB890133FB81FA89BB889A4224
:40100000EDD3FB79184600F00BF801E00023BB80BB8818461037BD4680BD00BF7060004090B482B000AF0346FB71FB79002B1CD0FB79082B19D8FA790E4913465B00134423
:401040009B000B44013300221A700B48F979FA79084C13465B0013449B00234405331B78DAB20B01034402331A7000BF0837BD4690BC7047B885FF1FFC5F004080B582B043
:4010800000AF0023FB71314B1B79DBB2184600F067F80346BB712D4B1B78DBB25BB2002B15DA2A4B5B78DBB2212B00D048E0284B07221A80BA791346DB009B1A254A134443
:4010C000234A536000F020FB0346FB7138E01F4B5B78DBB2202B02D0222B1AD030E01C4B07221A80BA791346DB009B1A194A1344174A5360BB79BA7917498A5CD2B242F053
:401100000102D1B2144AD15400F07CFB0346FB7116E0BB790D4A9278D2B291B20F4A22F81310BB79BA790C498A5CD2B242F00202D1B2094AD15400F003FC0346FB7100BFE8
:40114000FB7918460837BD4680BD00BF006000409C85FF1F1881FF1F7885FF1F8C85FF1F80B485B000AF0346FB710023FB73FF23BB7317E0FB7B104AD35C7B737A7B0F49A0
:4011800013465B0013449B000B440A331B78DBB2FA799A4203D1FB7BBB730223FB73FB7B0133FB73FB7B012BE4D9BB7B18461437BD4680BC704700BF8085FF1FB885FF1FFA
:4011C00080B582B000AF0023BB71224B00221A70214B00221A70204B00225A700023FB7110E0FB791D4AD35C7B717B79002B06D07B79082B03D87B791846FFF711FFFB79CA
:401200000133FB71FB79012BEBD9154B1B78DBB2002B18D0114B1B78DBB2002B13D0114B1B78DBB2002B0ED00D4B1B78DBB2082B09D80A4B1B78DBB2082B04D8094B1B7811
:40124000DBB2082B01D90123BB71BB7918460837BD4680BD4784FF1F7885FF1F8485FF1F7C85FF1F8085FF1F80B584B000AF78600B467B80144B1B781A46144B9B5CFB73B4
:40128000FA7B134913465B0013449B000B4408331B889BB27A889A420CD9FA7B0C4913465B0013449B000B4408331B887B80002001F0DEFD7A88FB7B79681846FFF7E6FD66
:4012C00000BF1037BD4680BD4784FF1F7C85FF1FB885FF1F80B584B000AF0346FB71FB79FB73084B1B781A46074B9B5CDBB207F10F0101221846FFF7C9FD00BF1037BD462C
:4013000080BD00BF4784FF1F7C85FF1F80B500AF054B1B781A46054B9B5CDBB21846FFF76FFD0346184680BD4784FF1F8485FF1F80B500AF054B1B781A46054B9B5CDBB2FF
:401340001846FFF75DFD0346184680BD4784FF1F7C85FF1F80B582B000AF084B1B781A46074B9B5CFB71B91DFB7901221846FFF711FEBB7918460837BD4680BD4784FF1FF8
:401380008485FF1F80B485B000AF78600B46FB701346BB707B68DB7803F00303FB737B689B785BB2002B1ADAFB7B032B0AD0BB7803F001031449FA78CA54BB7843F0010318
:4013C000BB701BE0BB789B08DBB203F001030F49FA78CA54BB7843F00403BB700EE0FB7B032B0BD0BB785B08DBB203F001030849FA78CA54BB7843F00203BB70BB7818465E
:401400001437BD4680BC70477C85FF1F8085FF1F8485FF1F80B582B000AF374B1B78BB71BB7903F01003002B62D00123FB7197F90630002B12DABB7903F00F03012B02D070
:401440000023FB711CE000F061F82C4B1B78DBB25BB2002B14DA0023FB7111E0BB7903F04003002B02D000F095F809E0BB7903F02003002B02D000F0B3F801E00023FB713C
:40148000FB79002B34D01C4B1B78BB7197F90630002B2DDB1A4B1B78DAB21A4B1B78DBB21343BB71184ABB791370174B1B78DBB2BA799A421CD1114B1B78FB710E4B1B7801
:4014C000DBB223F07F03BB71BB79002B0AD10A4B0A4A1278D2B21A70074B1B78DBB203F00F03FB71054B1B78DBB2FA799A42E2D100BF0837BD4680BD28600040B185FF1F74
:401500002686FF1FB485FF1F2960004080B582B000AF1D4B1B78FB711B4AFB7913701A4B1B78FB7197F90730002B03DA174AFB79137025E0022000F045FA154B1B78DBB287
:4015400003F06003202B08D0402B0BD0002B0ED100F0F8FA0346FB710CE001F069FD0346FB7107E001F000FB0346FB7102E00023FB7100BFFB79002B02D1044B03221A70EB
:4015800000BF0837BD4680BD28600040B185FF1F0060004080B500AF104B1B78DBB2062B19D801A252F823F0D7150000D7150000C5150000D7150000CB150000D715000046
:4015C000D115000000F0F8F806E000F0A7F903E000F0D2F900E000BF00BF80BD9485FF1F80B500AF124B1B78DBB2062B1DD801A252F823F02B1600002B160000111600000F
:401600002B160000171600002B1600001D16000000F0D8F80AE000F027F907E0032000F0D1F9044B03221A7000E000BF00BF80BD9485FF1FB185FF1F80B483B000AF0023ED
:40164000FB71294B1B78DBB29AB2284B1B889BB213449AB2254B1A8015E02549FB79254A52681278D2B2CA54224B5B680133214A5360FB790133FB711E4B1B889BB2013BB7
:401680009AB21C4B1A801B4B1B889BB2002B02D0FB79072BE1D9144B1B78DBB2082B02D0FB79002B0FD0144B1B78DBB283F07F03DB43DAB2104B1A70104B0F221A70104BB4
:4016C00002221A7005E00D4B02221A700C4B02221A700C4AFB791370034AFB79137000BF0C37BD4680BC70479085FF1F9285FF1F006000409C85FF1F2686FF1FB185FF1F5E
:401700009485FF1FB485FF1F80B582B000AF164B1B889BB2002B02D100F02EF81EE0134B02221A70124B00221A7000F06BF9114BDB79DBB29BB21B029AB20E4B9B79DBB24C
:401740009BB21343FB80084B1B889BB2FA889A4202D2054AFB881380FFF76EFF012318460837BD4680BD00BF9C85FF1F9485FF1F2686FF1F0060004080B400AF094B022213
:401780001A70094B80221A70084B0F221A70084B00221A70074B00221A7001231846BD4680BC70479485FF1F2686FF1FB185FF1F9085FF1FB485FF1F80B500AFFFF73CFFA8
:4017C00000BF80BD80B500AF0A4B1B78DBB29AB2094B1B889BB213449AB2074B1A80074B00221A70012000F0EDF8054B03221A7000BF80BD9085FF1F9285FF1F9485FF1FE7
:40180000B185FF1F80B582B000AF124B04221A70114B80221A7000F0F5F8104BDB79DBB29BB21B029AB20D4B9B79DBB29BB21343FB800B4B1B889BB2FA889A4202D2084AF9
:40184000FB881380074B0B221A70012318460837BD4680BD9485FF1F2686FF1F006000409C85FF1FB185FF1F80B483B000AF0023BB71234B1B78DBB203F00F03DBB2023B52
:40188000FB71FB799AB21F4B1B889BB213449AB21C4B1A8018E01C4B5B681C49BA798A5CD2B21A70184B5B680133174A5360BB790133BB71FB79013BFB71134B1B889BB2E4
:4018C000013B9AB2104B1A800F4B1B889BB2002B02D0FB79002BDED10D4AFB7913700D4B1B78DBB283F07F03DB43DAB2094B1A70094B0B221A7000BF0C37BD4680BC704790
:40190000296000409285FF1F9C85FF1F00600040B485FF1F2686FF1FB185FF1F80B500AF054B00221A70012000F04CF8034B03221A7000BF80BD00BF9485FF1FB185FF1FDD
:4019400080B400AF084B06221A70084B06221A70074B80221A70074B00221A7001231846BD4680BC704700BF9485FF1FB185FF1F2686FF1FB485FF1F80B500AF0D4B1B784C
:40198000DBB2002B0AD00C4A0A4B1B78DBB263F07F03DBB21370074B00221A70074B00221A70012000F00EF8054B03221A7000BF80BD00BFB285FF1F086000409485FF1FE4
:4019C000B185FF1F80B483B000AF0346FB710B4B9B68002B0CD0094B9B68FA791A70074B9B68074A128892B25A80044B00229A6000BF0C37BD4680BC704700BF9C85FF1F55
:401A00009285FF1F80B400AF094B00221A80094B9B68002B07D0074B9B6800221A70054B9B6800225A8000BFBD4680BC704700BF9285FF1F9C85FF1F80B400AF0D4B01228F
:401A40001A700D4B9B7C0D4B1B7BDBB203F00303012B08D0094BDB7BDBB283F07F03DB43DAB2064BDA73054B01225A7300BFBD4680BC70470B600040FC5F0040B885FF1FEB
:401A800080B400AF0E4B02221A700E4B93F822300D4B1B7EDBB203F00303012B08D00A4BDB7EDBB283F07F03DB43DAB2064BDA76054B01225A7600BFBD4680BC704700BF59
:401AC0000B600040FC5F0040B885FF1F80B400AF104B04221A70104B93F832300F4B93F82430DBB203F00303012B0AD00B4B93F82730DBB283F07F03DB43DAB2074B83F819
:401B00002720064B012283F8252000BFBD4680BC704700BF0B600040FC5F0040B885FF1F80B400AF00BFBD4680BC704780B500AFFFF726F900BF80BD80B500AF01F05AF960
:401B400000BF80BD80B586B000AF0023FB759D4B1B78FB7100233B619B4B00221A8097F90730002B80F20481964B5B78DBB20A2B00F21B8201A252F823F000BFC71C0000E4
:401B8000AB1F0000AB1F0000AB1F0000AB1F0000AB1F0000A91B0000AB1F00003B1D0000AB1F0000511D0000864BDB78DBB2012B0ED100F049FEB860BB685B68824A5360A5
:401BC000814B12221A80FFF79FFD0346FB75EEE17C4BDB78DBB2022B25D17A4B9B78DBB2184600F009FEB860BB68002B00F0DF81BB685B68744A5360734B5B6803331B7856
:401C0000DBB29BB21B029AB26F4B5B6802331B78DBB29BB213439AB26B4B1A80FFF774FD0346FB75C3E1674BDB78DBB2032B45D10023FB73654B3B6109E03B691B78BB718D
:401C4000BB793A6913443B61FB7B0133FB735D4B9B78DBB2FA7B9A4204D23B691B78DBB2002BEAD1574B9B78DBB2EE2B01D1584B3B61544B9B78DBB2002B0BD0514B9B7809
:401C8000DAB2544B1B7C9A4204D1534800F0ACF9514B3B613B691B78DBB2002B00F087813B691B78DBB29AB2474B1A80464A3B695360FFF729FD0346FB7578E101F0B8F96F
:401CC0000346FB7573E1FB7903F00303002B20D0022B00D030E03C4B02221A80394B1B79DBB203F07F023D4913465B0013449B000B4402331B78DAB2394B1A70384B002262
:401D00005A70314B364A5A60FFF7FEFC0346FB7512E02D4B02221A80324B1B78DAB2304B1A702F4B00225A70274B2D4A5A60FFF7EBFC0346FB7500BF40E1234B01221A8007
:401D4000214B294A5A60FFF7DFFC0346FB7535E11D4B01221A801B4B1B79DBB21A46234B1344194A5360FFF7CFFC0346FB7525E1144B5B78DBB2013B0A2B00F21A8101A263
:401D800052F823F08F1E0000B31F00001D1F0000B31F0000B11D0000B31F0000B31F0000B31F0000F51D0000B31F00004B1E0000044B9B78DAB20E4B1A70FFF7C1FD0346DA
:401DC000FB75FBE0006000409C85FF1FC43D0000D83E00006C3D00003886FF1FB885FF1F4884FF1FB585FF1FB385FF1F2486FF1FB285FF1F744B9B787B717B79002B06D05A
:401E00007B79013BDBB2184600F0F6FCB8607B79002B02D0BB68002B03D17B79002B40F0CA806A4B1B78DBB27A799A4208D0674A7B791370664B01221A70012000F0DCF9F9
:401E4000FFF77EFD0346FB75B5E000F055FE0346002B00F0B2805C4B1B793B715A4B1B79DAB25C4B1A703B795B4AD35CDAB23B795A49CB5CDBB29A4204D0554B01221A70D1
:401E800000F08CFBFFF75CFD0346FB7595E0FB7903F00303012B20D0012B0CD3022B00D03BE0494B9B78DBB2002B31D100F078FD0346FB752CE0444B9B78DBB2012B29D1A2
:401EC000474B1B78DBB223F00203DAB2444B1A70FFF736FD0346FB751CE03B4B1B79DBB2012B19D8384B9B78DBB2DB43DBB2364A1279D2B2114610463A4A125CD2B21340FE
:401F0000DAB2384B5A54FFF71BFD0346FB7503E000BF53E000BF51E000BF4FE0FB7903F00303012B20D0012B0CD3022B00D03BE0254B9B78DBB2002B31D100F0BDFC03468F
:401F4000FB752CE0204B9B78DBB2012B29D1244B1B78DBB243F00203DAB2214B1A70FFF7EFFC0346FB751CE0174B1B79DBB2012B19D8154B9B78DBB2DB43DBB2124A1279A3
:401F8000D2B211461046174A125CD2B21340DAB2144B5A54FFF7D4FC0346FB7503E000BF0CE000BF0AE000BF08E000BF06E000BF04E000BF02E000BF00E000BFFB7D184637
:401FC0001837BD4680BD00BF00600040B385FF1FB085FF1FA885FF1F9885FF1F2486FF1FB585FF1F2886FF1FB0B58AB000AF7860324B07F114041D460FCD0FC42B682370ED
:40200000002387F826307B68002B52D07B6822221A707B68013303221A7007F10C03184600F092FF022387F827303EE097F827307A68134497F8262007F128010A4412F895
:402040001C2C1209D2B207F128010A4412F8142C1A7097F8273001337A68134400221A7097F8273002337A68134497F8262007F128010A4412F81C2C02F00F0207F1280129
:402080000A4412F8142C1A7097F8273003337A68134400221A7097F82630013387F8263097F82730043387F8273097F82730212BBCD900BF2837BD46B0BD00BF583D000073
:4020C00090B482B000AF0123FB7180E0464AFB791B0113440C221A70FA79444913465B0013449B000B4405331B78DBB2002B1CD0FA793E4913465B0013449B000B44043312
:402100001B78DBB25BB2002B07DA394AFB791B01134402330C221A700EE0354AFB791B011344023308221A7006E0314AFB791B011344023380221A702B48F979FA792B4C5A
:4021400013465B0013449B00234406331B889BB2DAB20B01034406331A702348F979FA79224C13465B0013449B00234406331B889BB21B0A9BB2DAB20B01034407331A707E
:402180001948F979FA79194C13465B0013449B00234406331B889BB2DAB20B01034404331A701148F979FA79104C13465B0013449B00234406331B889BB21B0A9BB2DAB2D0
:4021C0000B01034405331A70FB790133FB71FB79082B7FF67BAF074BFF221A7000BF0837BD4690BC704700BF70600040B885FF1FFC5F00400A60004080B58AB000AF034699
:40220000FB7100237B84002387F8273050E097F82720B34913465B0013449B000B4400221A7097F82720AE4913465B0013449B000B44023300221A7097F82720A8491346B1
:402240005B0013449B000B44033300221A7097F82720A34913465B0013449B000B44083300221A8097F827209D4913465B0013449B000B440A3300221A7097F827209849E1
:4022800013465B0013449B000B44013300221A7097F82720924913465B0013449B000B44053300221A7097F82730013387F8273097F82730082BAAD9FB79002B16D000238B
:4022C00087F825300EE097F82530864A0021D15497F82530844A0021D15497F82530013387F8253097F82530012BECD97F4B1B78DBB2002B00F04A810023FB767B4B1B78AC
:40230000DBB2013BDBB2184600F076FA78617B695B683B613B6907331B7803F04003002B08D0734B1B78DBB243F00103DAB2704B1A7007E06E4B1B78DBB223F00103DAB27A
:402340006B4B1A707B6908337B617B691B7887F82730012387F82530B6E07B695B68FB61002387F82630A3E097F82520FB699B7803F07F039A4240F0938097F82520584975
:4023800013465B0013449B000B4408331B889AB2FB699B889A420CD297F82520FB6998884F4913465B0013449B000B44083302461A80FB691B781A464A4B9B5CDAB2FB69E8
:4023C0005B789A426CD197F82520FB699878444913465B0013449B000B44043302461A7097F82520FB69D8783D4913465B0013449B000B4402461A70FB69DB7803F0030399
:40240000FB73FB699B785BB2002B1CDA97F82520FB7B012B01D1072000E00D20304913465B0013449B000B44053302461A7097F825202B4913465B0013449B000B44013324
:4024400001221A701BE097F82520FB7B012B01D1052000E00920224913465B0013449B000B44053302461A7097F825201C4913465B0013449B000B44013300221A70FB6962
:402480009B790A2B03D0FB699B79022B08D1FA7E97F825301946F869FEF774FF0346FB76FB690833FB6197F82630013387F8263097F8262097F827309A42FFF455AF97F83E
:4024C0002530013387F8253097F82530082B7FF644AF7B695B68FB61002387F8253020E0B885FF1F2486FF1F9885FF1FB385FF1FB585FF1FFB699B7803F07F02FB6918781B
:40250000244913465B0013449B000B440A3302461A70FB690833FB6197F82530013387F8253097F8252097F827309A42E2D300F09DF90246184B1A6000237B84012387F888
:4025400027301DE097F82720124913465B0013449B000B4406337A8C1A8097F827200D4913465B0013449B000B4408331B889AB27B8C13447B8497F82730013387F8273070
:4025800097F82730082BDDD9FFF79AFD00BF2837BD4680BDB885FF1FAC85FF1F90B585B000AF8F4B1B78DBB2002B00F015818C4B1B78DBB2013BDBB2184600F01DF97860E7
:4025C0007B6808337B607B681B78FB707B685B68BB60844B1B78BB700023FB73F7E0BB681B78BA789A4240F0EC80BB787E4AD35CDAB2BB685B789A4240F0E380BB689B789A
:4026000003F07F037B70BB68DB7803F003033B707A78764913465B0013449B000B44033300221A707A78BB689878704913465B0013449B000B44043302461A707A78BB68A7
:40264000D8786A4913465B0013449B000B4402461A707A78BB689888644913465B0013449B000B44083302461A80BB689B785BB2002B1ADA7A783B78012B01D1072000E090
:402680000D205A4913465B0013449B000B44053302461A707A78554913465B0013449B000B44013301221A7019E07A783B78012B01D1052000E009204C4913465B0013447B
:4026C0009B000B44053302461A707A78474913465B0013449B000B44013300221A70444A7B781B011344023301221A70404879787A783E4C13465B0013449B00234408337C
:402700001B889BB21B0A9BB2DAB20B0103441A70374879787A78354C13465B0013449B00234408331B889BB2DAB20B01034401331A70304879787A782C4C13465B00134438
:402740009B00234406331B889BB2DAB20B01034406331A70274879787A78244C13465B0013449B00234406331B889BB21B0A9BB2DAB20B01034407331A701E4879787A7836
:402780001A4C13465B0013449B00234406331B889BB2DAB20B01034404331A70154879787A78124C13465B0013449B00234406331B889BB21B0A9BB2DAB20B010344053380
:4027C0001A70BB680833BB60FB7B0133FB73FA7BFB789A42FFF403AF00BF1437BD4690BDB385FF1FA885FF1F2486FF1FB885FF1FFC5F00407060004080B485B000AF03462B
:40280000FB710F4B1B78DBB20E4ADB0013445B68FB60FB681033FB60FB681B78FA799A4202D30023FB6005E0FB79DB00FA6813445B68FB60FB6818461437BD4680BC704764
:402840009185FF1FD03E000080B400AF054B1B78DBB2054ADB0013445B681846BD4680BC704700BF9185FF1FD03E000080B584B000AF104B1B78DBB2013BDBB21846FFF77A
:40288000BBFFB860BB68002B0DD0BB685B681B79FB71FB790233DB00BA681344BB60BB685B68FB6001E00023FB60FB6818461037BD4680BDB385FF1F80B582B000AF0023A6
:4028C000FB71344B1B79DBB203F07F03BB71BB79002B5AD0BB79082B57D8BA79B9792E480B465B000B449B00034402331B78DBB243F00103D8B2284913465B0013449B0027
:402900000B44023302461A70BA79234913465B0013449B000B44033300221A70BA79B9791D480B465B000B449B00034401331B78DBB243F00203D8B2174913465B001344A3
:402940009B000B44013302461A70BA79124913465B0013449B000B4404331B78DBB25BB2002B07DA0D4ABB791B01134402338D221A7006E0094ABB791B0113440233892248
:402980001A70FEF7DDFF0346FB71FB7918460837BD4680BD00600040B885FF1FFC5F004080B582B000AF0023FB71504B1B79DBB203F07F03BB71BB79002B00F09280BB7989
:4029C000082B00F28E80BA79B97949480B465B000B449B00034402331B78DBB223F00103D8B2434913465B0013449B000B44023302461A70BA793E4913465B0013449B00F3
:402A00000B44033300221A703A49BB793948BA79120102441278D2B202F07F02D2B21B010B441A70BA79B97931480B465B000B449B00034401331B78DBB223F00203D8B2F6
:402A40002B4913465B0013449B000B44013302461A70BA79264913465B0013449B000B4404331B78DBB25BB2002B1BDABA79204913465B0013449B000B4401331B78DBB2E7
:402A8000012B07D11B4ABB791B01134402330C221A7022E0174ABB791B01134402330D221A701AE0BA79124913465B0013449B000B4401331B78DBB2012B07D10D4ABB79C1
:402AC0001B011344023308221A7006E0094ABB791B011344023309221A70FEF731FF0346FB71FB7918460837BD4680BD00600040B885FF1FFC5F004080B584B000AF0023B4
:402B0000FB73154B1B79BB73144B1B78DBB2013BDBB21846FFF770FEB860BB685B681B79FB71BA7BFB799A4202D9BB7B022B0ED8BB7BBA7B0A498A5CD1B20A4AD154BB7B7E
:402B4000054A9278D1B2064AD1540123FB73FB7B18461037BD4680BD00600040B385FF1F2486FF1F9885FF1F80B582B000AF0023FB710F4B1B78DBB25BB2002B12DA0C4B84
:402B80005B78DBB2012B00D00CE00A4B0A4A5A60094B1B789AB2074B1A80FEF7B5FD0346FB7100BFFB7918460837BD4680BD00BF006000409C85FF1FEC3E000080B500AF33
:402BC000064B1B78002B04D100F00AF8034B01221A7000F01BF800BF80BD00BF4A84FF1F80B500AF074A074B1B78DBB243F00603DBB213700C2000F06BF8034B00221A80DE
:402C000000BF80BD015900403486FF1F80B582B000AF00F005FA0346FB71254A244B1B78DBB243F00103DBB21370224A214B1B78DBB243F00103DBB213701F4B1B78BB71BF
:402C4000BB7943F00203BB71BB7943F00103BB71194ABB791370194B18221A70184A184B1B78DBB243F04003DBB21370144A144B1B78DBB223F00303DBB21370114BC8222C
:402C80001A70114B02221A70104A104B1B78DBB243F00803DBB213700A2000F0F5F8FB79184600F0C1F900BF0837BD4680BD00BFAB430040BB430040035900400659004036
:402CC000055900400059004014460040275B004080B584B000AF0346FB71FB790A2B07D00C2B02D0082B06D008E0C223FB730BE08223FB7308E04223FB7305E0C223FB73B6
:402D0000002000F0B5F800BF054AFB7B1370FB79184600F02FF800BF1037BD4680BD00BF0259004080B400AF054A054B1B78DBB243F00103DBB2137000BFBD4680BC7047A8
:402D40000059004080B483B000AF084B1B88FB80074B1B881BB29BB2FA88D31A9BB21BB218460C37BD4680BC704700BFA05B00402E86FF1F80B584B000AF0346FB71FB79F7
:402D80000A2B08D00C2B02D0082B08D00BE04FF48053FB600DE04FF48063FB6009E04FF48073FB6005E00023FB60002000F060F800BF0C4B00221A80FB6842F2107202FBFB
:402DC00003F303F6C413084A82FB0312D212DB17D31A064A1360064B00221A8000BF1037BD4680BD2C86FF1FAD8BDB683086FF1F2E86FF1F80B400AF054B1B78DBB203F019
:402E000040039B09DBB21846BD4680BC704700BF8F45004080B483B000AF134B7F221A70124B80221A707F23FB710CE0FB79DB0003F1804303F5F043FA79013AD2B21A70E8
:402E4000FB79013BFB71FB79002BEFD1FB79DB0003F1804303F5F04300221A7000BF0C37BD4680BC704700BF3581FF1F3481FF1F80B483B000AF0346FB7101BE00BF0C3710
:402E8000BD4680BC704700BF80B582B000AF0346FB80FB88054A127802FB03F3184600F0B7F800BF0837BD4680BD00BF4481FF1F80B584B000AF03463960FB710F4B1B6814
:402EC000FB60FB791F2B02D90020FFF7D1FFFB7903F01F0310339B00FA6813441B68BB60FB7903F01F0310339B00FA6813443A681A60BB6818461037BD4680BD08ED00E021
:402F000080B582B000AF03460A46FB711346BB71BB79072B02D90020FFF7AAFFFB791F2B02D90020FFF7A4FFFB7903F01F0303F1604303F56443BA795201D2B21A7000BF8D
:402F40000837BD4680BD00BF80B483B000AF7860264B1B78DBB21A467B681A60244B1B78DBB21B027A6812681A437B681A60214B1B78DBB21B047A6812681A437B681A6054
:402F80001D4B1B78DBB21B067A6812681A437B681A607B680433194A1278D2B21A60184B1B78DBB21A027B6804337968043109680A431A60134B1B78DBB21A047B68043390
:402FC0007968043109680A431A600F4B1B78DBB21A067B6804337968043109680A431A6000BF0C37BD4680BC704700BF0301004904010049EC460040020100490101004926
:40300000000100490501004906010049000000000230800803D000BF01380046FCD17047EFF3108072B6704780F31088704700BF80B582B000AF0023BB711B4B1B78DBB29B
:4030400003F00303012B02D0022B04D012E0164B1B79FB7111E0144B1B79DBB203F07F02124913465B0013449B000B440A331B78FB7102E00023FB7100BFFB79022B0ED8DD
:403080000B4B1A68FB7913441B78022B04D1FDF7F5FF0346BB7102E00023BB7100BFBB7918460837BD4680BD00600040B885FF1FAC85FF1F80F0004002E000BF81F000412D
:4030C00042001FBF5FEA410392EA030F7FEA226C7FEA236C6AD04FEA1262D2EB1363C1BFD218414048404140B8BF5B42192B88BF704710F0004F40F4000020F07F4018BF19
:40310000404211F0004F41F4000121F07F4118BF494292EA030F3FD0A2F1010241FA03FC10EB0C00C3F1200301FA03F100F0004302D5494260EB4000B0F5000F13D3B0F1BF
:40314000807F06D340084FEA310102F10102FE2A51D2B1F1004F40EBC25008BF20F0010040EA03007047490040EB000010F4000FA2F10102EDD1B0FA80FCACF1080CB2EB4A
:403180000C0200FA0CF0AABF00EBC25052421843BCBFD0401843704792F0000F81F4000106BF80F400000132013BB5E74FEA41037FEA226C18BF7FEA236C21D092EA030F0C
:4031C00004D092F0000F08BF0846704790EA010F1CBF0020704712F07F4F04D1400028BF40F00040704712F100723CBF00F50000704700F0004343F0FE4040F400007047C4
:403200007FEA226216BF08467FEA23630146420206BF5FEA412390EA010F40F4800070474FF0000304E000BF10F0004348BF40425FEA000C08BF704743F0964301464FF087
:4032400000001CE050EA010208BF70474FF000030AE000BF50EA010208BF704711F0004302D5404261EB41015FEA010C02BF84460146002043F0B64308BFA3F18053A3F58C
:403280000003BCFA8CF2083AA3EBC25310DB01FA02FC634400FA02FCC2F12002BCF1004F20FA02F243EB020008BF20F00100704702F1200201FA02FCC2F1200250EA4C0068
:4032C00021FA02F243EB020008BF20EADC7070474FF0FF3C06E000BF4FF0010C02E000BF4FF0010C4DF804CD4FEA40024FEA41037FEA226C18BF7FEA236C11D001B052EAC1
:40330000530C18BF90EA010F58BFB2EB030088BFC81738BF6FEAE17018BF40F0010070477FEA226C02D15FEA402C05D17FEA236CE4D15FEA412CE1D05DF8040B704700BF4D
:40334000844608466146FFE70FB5FFF7C9FF002848BF10F1000F0FBD4DF808EDFFF7F4FF0CBF012000205DF808FB00BF4DF808EDFFF7EAFF34BF012000205DF808FB00BF71
:403380004DF808EDFFF7E0FF94BF012000205DF808FB00BF4DF808EDFFF7D2FF94BF012000205DF808FB00BF4DF808EDFFF7C8FF34BF012000205DF808FB00BF4FEA4002EA
:4033C000B2F1FE4F0FD34FF09E03B3EB12620DD94FEA002343F0004310F0004F23FA02F018BF404270474FF00000704712F1610F01D1420205D110F0004008BF6FF00040E8
:4034000070474FF000007047014B1868704700BFAC81FF1F0E4B70B51E460E4C0025E41AA410A54204D056F8253098470135F8E700F08CFD084B094C1E46E41AA410002591
:40344000A54204D056F8253098470135F8E770BD583F0000583F0000583F0000603F000010B5431E0A44914204D011F8014B03F8014FF8E710BD03460244934202D003F8D1
:40348000011BFAE7704700000EB400B54FF402719CB0ADF814106FF00041049107914FF6FF711DAB02900690084853F8042BADF81610006802A9019300F074F8029B00224D
:4034C0001A701CB05DF804EB03B07047AC81FF1F034611F8012B03F8012B002AF9D17047034613F8012B002AFBD1181A013870472DE9F0478E6882469E420C4691469846A3
:403500003ED88A8912F4906F3AD02568096902236F1A656905EB450595FBF3F57B1C43449D4238BF1D4653050FD5294600F040FB064698B13A462169FFF792FFA38923F490
:40354000906343F08003A38113E02A4600F08EFB064670B92169504600F0DEFA0C23CAF80030A3894FF0FF3043F04003A381BDE8F08726613E44266046466561ED1BA560E6
:40358000464528BF464649463246206800F0A8FAA36800209B1BA36023681E442660BDE8F08700002DE9F04F9DB003938B8980461C060D4616460DD50B695BB9402100F0DB
:4035C000F7FA2860286118B90C23C8F80030CDE040236B610023099320238DF82930DFF89CB130238DF82A3037463C4614F8013B1BB9B7EB060910D003E0252BF9D02746B2
:40360000F3E74B46324629464046FFF771FF013000F0A780099B4B4409933B78002B00F0A08000234FF0FF3204930793059206938DF853301A930126052221784E4800F031
:4036400041FA671C049B38B14B4A3C46801A06FA00F018430490EFE7D90644BF20228DF853201A0744BF2B228DF8532022782A2A03D0079A00210A200BE0039A111D12683C
:403680000391002A10DA524243F00200079204900BE027463B780134303B092B03D800FB02320121F5E701B107923B782E2B1ED17B782A2B0AD1039B02371A1D1B680392F6
:4036C000002BB8BF4FF0FF33059310E0002319460593781C0A2407463A780130303A092A03D804FB01210123F5E703B1059103223978224800F0E6F940B14023CBEB000027
:4037000003FA00F0049B013718430490397806221B487E1C8DF8281000F0D4F988B1194B33B9039B073323F007030833039314E003AB00932A46144B04A94046AFF30080DE
:4037400007E003AB00932A460F4B04A9404600F093F8B0F1FF3F824603D0099B5344099342E7AB895B0601D4099801E04FF0FF301DB0BDE8F08F00BF163F00001C3F000075
:40378000203F000000000000F13400002DE9F04791461F460A698B6806469342B8BF1346C9F8003091F843200C46DDF8208012B10133C9F800302368990642BFD9F80030ED
:4037C0000233C9F80030256815F0060510D104F1190A07E00123524639463046C04701301AD00135E368D9F800209B1A9D42F1DB94F843302268003318BF012392060FD54E
:40380000E118302081F843005A1C94F845102244023382F8431003E04FF0FF30BDE8F08704F1430239463046C0470130F4D02268D9F80050E36802F00602042A08BF5D1BCF
:403840002269A3680CBF25EAE57500259342C4BF9B1AED184FF000091A344D4509D00123224639463046C0470130D5D009F10109F3E70020BDE8F0872DE9F04317460A7EA0
:4038800085B06E2A984606460C460C9B01F1430E00F0AE8011D8632A22D009D8002A00F0BB80582A40F0CA8081F84520834955E0642A1ED0692A1CD0C0E0732A00F0B080E6
:4038C00009D86F2A2ED0702A40F0B8800A6842F020020A603EE0752A24D0782A3AD0ADE01A6801F14205111D1960136884F84230A8E021681A6811F0800F02D0111D1960CD
:4039000008E011F0400F02F10401196002D0B2F9003000E01368002B3CDA2D225B4284F8432037E021681A6811F0800F02D0111D196007E011F0400F02F10401196001D026
:40394000138800E01368227E5C496F2A14BF0A2208221BE078225A4984F845202268186812F0800F00F104051D6003D1550601D5038800E00368D00744BF42F02002226094
:403980001BB9226822F0200222601022002084F8430001E049490A226568002DA56008DB206820F0040020602BB9002D7DD175460CE0002B79D07546B3FBF2F002FB103340
:4039C000CB5C05F8013D03460028F5D1082A0BD12368DA0708D5236962689A42DEBF302305F8013C05F1FF35C5EB0E0323612EE008681A6810F0800F496903D0101D186053
:403A0000136808E010F0400F02F104001860136801D0198000E0196000232361754616E01A68111D1960156800216268284600F049F808B1401B6060636804E004F14205E0
:403A400084F8422001232361002384F84330CDF800803B4603AA21463046FFF797FE013002D14FF0FF3026E023692A4639463046C0470130F5D023689B0710D5002504F141
:403A8000190907E001234A4639463046C0470130E7D00135E368039A9B1A9D42F2DBE068039B9842B8BF184605E00B7804F1420584F842308AE705B0BDE8F083273F00001B
:403AC000383F000010B5C9B202449042034605D01C7801308C42F8D1184610BD002010BD884210B501EB020301D8421E0BE09842FBD28118D21AD34204D013F8014D01F85A
:403B0000014DF8E710BD994204D011F8014B02F8014FF8E710BD000038B50546002944D051F8043C0C1F002BB8BFE41800F0D4F81E4A1368114613B96360146030E0A342DC
:403B40000DD92268A018834201BF18685B681218226063600C6023E0A24203D813465A68002AF9D118681918A1420BD12168014458188242196013D11068526801441960EA
:403B80005A600DE002D90C232B6009E021686018824201BF106852680918216062605C602846BDE8384000F098B838BD5084FF1F70B5CD1C25F0030508350C2D38BF0C258E
:403BC000002D064601DBA94202D90C23336046E000F082F8234B1C681A462146A1B10B685B1B0ED40B2B03D90B60CC18CD501EE08C420BBF63684B681360636018BF0C4691
:403C000015E00C464968E9E7174C23681BB9304600F052F820602946304600F04DF8431C18D0C41C24F00304A0420DD12560304600F053F804F10B00231D20F00700C31A44
:403C40000ED05A42E25070BD211A304600F034F80130EBD10C233360304600F03EF8002070BD00BF5084FF1F4C84FF1FF8B5074615460E4621B91146BDE8F840FFF798BF63
:403C80001AB9FFF749FF2846F8BD00F027F885420ED929463846FFF78BFF044650B131462A46FFF7DDFB31463846FFF735FF01E03046F8BD2046F8BD38B5064C00230546B3
:403CC00008462360FCF72EFE431C02D1236803B12B6038BD5C86FF1F7047704751F8040C0028BEBF091851F8043CC01804387047000000004368616E6E656C2025643A2046
:403D000044433A2025642E25642564205650503A2025642E25642564200D0A00405100403000C0510040100000000140800200030140000D00140140000800400140000A0B
:403D4000004C0140000200500140200080020140E40900488000000030313233343536373839414243444546000000001201000202000008B40432F2010001028001000069
:403D800009024300020101C032090400000102020103052400100104240202052406000105240100010705810308000A09040100020A000004070582024000000705030247
:403DC00040000000040309042C0343007900700072006500730073002000530065006D00690063006F006E0064007500630074006F00720010035500530042005500410045
:403E0000520054003803430044004300200043006F006D006D0075006E00690063006100740069006F006E00200049006E0074006500720066006100630065002603430044
:403E40004400430020004400610074006100200049006E0074006500720066006100630065000C03430053003300300031000000020300000000810308000200010082021F
:403E800040000A000100030240000A00020A000001000000803D000003000000743E000000000000000000000000000000000000000000008C3E0000010000006C3D000075
:403EC000000000000000000001000000903E000001000000B83E000012034D0053004600540031003000300001000000280000000001040001000000000000000001435950
:403F000055534200000030303030310000000000000000004300232D302B2000686C4C00656667454647003031323334353637383941424344454600303132333435363736
:403F4000383961626364656600000000F8B500BFF8BC08BC9E4670474D0000000D0A0000F8B500BFF8BC08BC9E46704729000000803F0000C880FF1FE8000000B00400002F
:403F8000000000000A000000435333303120323032340A000000000000000000000000000000000000000000000000000000000000000000000000000000000000000000DB
:403FC0000000000000000000640000006086FF1F00C2010000000800C201000000080000A12000000000020000000000807F0000030000000087930360EA00003C0000005B
:40400000000030750000000000000000000000000000000000000000000000000000000000000000143F000000000000000000000000000000000000000000000000000088
:404040000000000000000000000000000000000000000000000000000000000000000000000000004C81FF1F00000000000000000000000000000000000000000000000055
:404080000000000000000000000000000000000000000000000000000000000000000000000000000000000000000000000000000000000000000000000000000000000000
:4040C00000000000000000000000000000000000000000000000000000000000000000000000000000000000000000000000000000000000000000000000000000000000C0
:40410000000000000000000000000000000000000000000000000000000000000000000000000000000000000000000000000000000000000000000000000000000000007F
:40414000000000000000000000000000000000000000000000000000000000000000000000000000000000000000000000000000000000000000000000000000000000003F
:020000040003F7
:0200000480007A
:40000000014500400A520040015B00400264004002650040400001402D01014003020140470301404D04014054050140440601404E07014006090140080B0140040D0140B1
:40004000010F01401F1401404A150140261601404D1701403E1801403D190140321A01404E1B0140104001401B4101400F4201400A4301400144014014450140144601408B
:400080000F47014010480140194901400A4C0140044D01400A500140035101407E02005501190980104611CC185C19C97802790A7C402784850F87388418877205030801B6
:4000C00009030A02120314021503160118011A021E032101230224032502270128032B032F033201330134023502580459045F018104842085038A1C8B048C208F04930447
:400100009504984199049A0E9C1C9D049E43A102A441A503A616A880AA03AB01AE08B020B104B2C0B41AB503B60FB80AB920BAA0BE01BF10D804D904DC01DF0101100498C3
:40014000088A0B040C100E011008121014041504160218041A201C101D021E011F602110220824402708288229242A102C142F6830083304340A3524378039103A043B0478
:400180003D1D3E8080448384C0E2C2CFC4E6CAEFCCF2CEF6E208580459045F01000A01400208050806100704080109080B090C080F081201131614821511182019051A04F9
:4001C00020042185231229112A402D1831043310340A378439AA3D013E083F0841844204468C4702480449504B0252408010820183208D018E089010922194889511981077
:400200009B889C8A9E16A102A408A504A708AA84AD10B608C06FC26FC4DFCA6DCCD6CECFD00ED20CE202E802EE0206300A200B030E081210160119011A041E04220228011A
:400240002C102E20300432033301350236383E4156085804590C5B045C095D905F01810A83148513870C88098A108B088D038F14941499139A039B049C1C9E02A40CA52068
:40028000A611A810AA0CAB15AC10B30FB41FB520B710BB08BF50C026C103C6BCC7E0C82CC9FFCAFFCBFFCEF0CF44D00CD401D604D804D904DA04DB04DC11DD11DF01E6C045
:4002C000EA40EB0201A00320041008010A240B020D200E010F20114012481410160A182219401A201B011D201F1022282320251426402F1832203410382039013A013C10FA
:400300003D883E09441046084E045540560157905B405D015EA86240644069407B027E047F08824884408C40901492059312948895F0970D981099059A809B489C8B9D40B0
:400340009E169F30A102A40DA51CA708AB40B510B610C047C2EFC4EBCA60CC24CEF4D060D220D6F8D888DE08EA45EE104003474049FF4A074BFF4C404D204EF04F0550088A
:4003800052035302580459045A045B045D015F01604061A86240632081218430850286C389678D088E0C8F109040921193089506988099619A229B069D04A147A320A4F3B2
:4003C000A546A604A721A8F3AA08AB10AC51AEA2AF21B120B340B4F0B507B60FB718BA80BB20BF04D418D604D804D904DB04DC11DD10DF01018003200510060408010B08F4
:400400000C100F2011441208148A163019801B20200A2120220529252A802C102E20300131A8348A3510380239403B143D103F204708560257085A026004620263026C047C
:400440006E806F0279207A08801483028B409006914092409310940895B0970D99059A819B089C8B9DA09E169F10A102A301A40DA508A604A72AAE10AF80C045C26AC4F7A1
:40048000CA6FCCFFCE2FD040D601D80DE020EE0483109420A502A648E004EE0486408A089420A502A810A902E402E610E202E802EC40EE02E2080104050809200B100D02A0
:4004C0001180134017011B021F0823042540278029012D102E012F20320135FF3F105602573F580459045B0F5F01D401D804D904DB0FDF01018803400588074008810920D3
:400500000D2010421489154019082210288029982A042B012C082D48304A31243488388039993B203C043F025B025E406122621068026919704071107A407B807F80821047
:400540008504884889018C048D748F4091409240972098809B029C489D049E14A102A240A301A408A820B608C0BDC24BC4D9CA7FCC5FCECFD611D801DE81E008E204E4048A
:40058000E608E810EA83EE640301070109010C010D01130115012901330134013E105608580459045B045D905F01850389018B02960197039D029F01A503A901AB02AF03D7
:4005C000B001B101B302D602D712D804D904DB04DD10DF01004002040504060508820B200F0210481210144215401638170418401A801B011E08210122082420281A2904DC
:400600002C0832403304340A38103A083EA83F025A085C205F406010620464016520670869A46B107188730584028510870189018C808E8C92489340942095B4970D9A010D
:400640009B029C9B9D209E149F10A102A240A408A588A604AA02C0E3C28DC4FECA2ECCCACEF6D632D830E204E408E626EE200003010F080109050A020B0A0F0F110A120438
:4006800013051402160119031B0C1C0320032101230E270F2A032C033002310132013302350436043708580459045F01800F8307880F89058B02900F91079503960F97041A
:4006C000980299029A0D9B059C079E08A106A301A707A803AA0CB008B104B202B302B401B501B604D804D904DF01001104110680082009010A010B200C020E221320160AA2
:4007000017011A241B421E9321022208230424042540260227102A0A2E0A2F1030103104330134103611372038113C103D023E808210834084208602871089408C018D042E
:400740008E018F0694209F10A502A64AB202C05AC2BFC4D2CAC3CCA7CEB5E020E210E410E620EE200002010102010402060109010C030D011003160317011901200121011D
:40078000220224032B01320234013501580459045F01802083048402862087028A208C219204940896209A109C24A208A301A601AA02AE20B102B304B41FB501B620B82075
:4007C000BE10D804D904DF0100010140022004810590071109010B200C420E2A1040110814201540164618201A081C021D101F1021202490250526302710284029102C9016
:400800002D8030103220330435103601370438903A023C103D403F09812082048480864488028A108C208D058E048F059001943097209A029B049F01A201A403A501A6106C
:40084000A804AA10AF04B001B204C0FDC2FCC4FCCAD5CCE6CEFDE040E290E490E640E814EA80EE2413021680302032023410370838803B023E8082038708C430CCF0CE7096
:40088000E230E6200D01338037805108540255405B105C0863016601802083808602948097029A039B02A420A602AC10C220CC30D4E0D6E0D880E2C0EE4087809102948072
:4008C00097029A029F10A540A780A802AB03B408B508E610EAA0EC8083108901910294809A029F10A540AB01E220EE2085200A20574059805B025F4061016620840891203B
:4009000097209901A520AD10AF10B501C208D403D606D803EC021B0424805110874089808C409120922097609D809E209F02A408A520A740C608C801D404E401E6080920D0
:400940000B200C0844028220922097209E209F02A408A520A740AB04C20ED0042408520253805402800182018A029A02A840B140C820D4A0D620E220E620EA8050015208C0
:400980005440560258085C01610866018208840890039A03A040A108A801AD08B040B380B406D4E0D6E0D8C0E220E610EAC062018B028E0192209C029F02A740D802E004FB
:4009C000E402AA10AB40B402E8080003010108030A030B01100311011A031B011C0100AB013F100A00000C04CF0130003C02C10004020800040000003000000108020000C1
:400A0000200000000000C30110000000FF0100007C008204B0013F007004000200020A08000000106103020005C00E0006FFFFFF62A0F0410C0000000000000004040400AF
:400A400011010001000000000000400200103010001010120000000000000000000000000000000002002002020002DDDD000000400000000000002EEE000000007F7F0063
:400A8000008080001000000000EEEE000000000000FFFF0000010000000000000000000000000000000000000000000000000000000000000000000000000000000000004B
:400AC00000000000000000000000000000000000000000000000000000000000000000000000000000000000000000000000000000000000000000000000000000000000F6
:400B000000000000000000000000000000000000000000000000000000000000000000000000000000000000000000000000000000000000000000000000000000000000B5
:400B40000000000000000000000000000000000000000000000000000000000000000000000000000000000000000000000000000000000000000000000000000000000075
:400B80000000000000000000000000000000000000000000000000000000000000000000000000000000000000000000000000000000000000000000000000000000000035
:0200000490006A
:0400000000004005B7
:0200000490105A
:04000000BC90ACAF55
:0200000490303A
:02000000AB94BF
:0200000490402A
:4000000000000000000000000000000000000000000000000000000000000000000000000000000000000000000000000000000000000000000000000000000000000000C0
:400040000000000000000000000000000000000000000000000000000000000000000000000000000000000000000000000000000000000000000000000000000000000080
:400080000000000000000000000000000000000000000000000000000000000000000000000000000000000000000000000000000000000000000000000000000000000040
:4000C0000000000000000000000000000000000000000000000000000000000000000000000000000000000000000000000000000000000000000000000000000000000000
:0200000490501A
:0C00000000012E16106900012E30BBFD1F
:00000001FF